{"contracts/DVS_v1.sol":{"Candidates":{"abi":[{"anonymous":false,"inputs":[{"components":[{"internalType":"address","name":"id_hash","type":"address"},{"internalType":"string","name":"name","type":"string"},{"internalType":"uint8","name":"id","type":"uint8"},{"internalType":"uint8","name":"voteCount","type":"uint8"}],"indexed":false,"internalType":"struct Candidates.Candidate[]","name":"","type":"tuple[]"}],"name":"CandidatesUpdated","type":"event"},{"inputs":[{"internalType":"uint256","name":"","type":"uint256"}],"name":"candidate","outputs":[{"internalType":"address","name":"id_hash","type":"address"},{"internalType":"string","name":"name","type":"string"},{"internalType":"uint8","name":"id","type":"uint8"},{"internalType":"uint8","name":"voteCount","type":"uint8"}],"stateMutability":"view","type":"function"},{"inputs":[],"name":"getHost","outputs":[{"internalType":"address","name":"","type":"address"}],"stateMutability":"view","type":"function"},{"inputs":[],"name":"getUsers","outputs":[{"internalType":"address[]","name":"","type":"address[]"}],"stateMutability":"view","type":"function"},{"inputs":[],"name":"logUser","outputs":[],"stateMutability":"nonpayable","type":"function"},{"inputs":[{"internalType":"address[]","name":"address_","type":"address[]"},{"internalType":"string[]","name":"name","type":"string[]"},{"internalType":"uint8[]","name":"id","type":"uint8[]"}],"name":"setCandidates","outputs":[],"stateMutability":"nonpayable","type":"function"},{"inputs":[{"internalType":"uint8","name":"id","type":"uint8"}],"name":"setID","outputs":[],"stateMutability":"nonpayable","type":"function"}],"evm":{"bytecode":{"linkReferences":{},"object":"608060405234801561001057600080fd5b50336000806101000a81548173ffffffffffffffffffffffffffffffffffffffff021916908373ffffffffffffffffffffffffffffffffffffffff160217905550611247806100606000396000f3fe608060405234801561001057600080fd5b50600436106100615760003560e01c8062ce8e3e146100665780631de43c4b1461008457806320bc4425146100b757806357c6245b146100d55780638b2abe87146100f1578063f873a131146100fb575b600080fd5b61006e610117565b60405161007b9190610d8b565b60405180910390f35b61009e60048036038101906100999190610a61565b6101a5565b6040516100ae9493929190610d3f565b60405180910390f35b6100bf6102a7565b6040516100cc9190610d24565b60405180910390f35b6100ef60048036038101906100ea91906109ca565b6102d0565b005b6100f96105a0565b005b61011560048036038101906101109190610a8a565b6106af565b005b6060600180548060200260200160405190810160405280929190818152602001828054801561019b57602002820191906000526020600020905b8160009054906101000a900473ffffffffffffffffffffffffffffffffffffffff1673ffffffffffffffffffffffffffffffffffffffff1681526020019060010190808311610151575b5050505050905090565b600481815481106101b557600080fd5b90600052602060002090600302016000915090508060000160009054906101000a900473ffffffffffffffffffffffffffffffffffffffff16908060010180546101fe9061101a565b80601f016020809104026020016040519081016040528092919081815260200182805461022a9061101a565b80156102775780601f1061024c57610100808354040283529160200191610277565b820191906000526020600020905b81548152906001019060200180831161025a57829003601f168201915b5050505050908060020160009054906101000a900460ff16908060020160019054906101000a900460ff16905084565b60008060009054906101000a900473ffffffffffffffffffffffffffffffffffffffff16905090565b60005b825181101561056257838181518110610315577f4e487b7100000000000000000000000000000000000000000000000000000000600052603260045260246000fd5b602002602001015160048281548110610357577f4e487b7100000000000000000000000000000000000000000000000000000000600052603260045260246000fd5b906000526020600020906003020160000160006101000a81548173ffffffffffffffffffffffffffffffffffffffff021916908373ffffffffffffffffffffffffffffffffffffffff1602179055508281815181106103df577f4e487b7100000000000000000000000000000000000000000000000000000000600052603260045260246000fd5b602002602001015160048281548110610421577f4e487b7100000000000000000000000000000000000000000000000000000000600052603260045260246000fd5b906000526020600020906003020160010190805190602001906104459291906106cd565b5081818151811061047f577f4e487b7100000000000000000000000000000000000000000000000000000000600052603260045260246000fd5b6020026020010151600482815481106104c1577f4e487b7100000000000000000000000000000000000000000000000000000000600052603260045260246000fd5b906000526020600020906003020160020160006101000a81548160ff021916908360ff160217905550600060048281548110610526577f4e487b7100000000000000000000000000000000000000000000000000000000600052603260045260246000fd5b906000526020600020906003020160020160016101000a81548160ff021916908360ff160217905550808061055a906110cb565b9150506102d3565b507fbc8faba43ec6a3612332f47b50cfcd69819e0c688b9e6406e610631dcf55b8f760046040516105939190610dad565b60405180910390a1505050565b600260003373ffffffffffffffffffffffffffffffffffffffff1673ffffffffffffffffffffffffffffffffffffffff16815260200190815260200160002060009054906101000a900460ff166106ad576001339080600181540180825580915050600190039060005260206000200160009091909190916101000a81548173ffffffffffffffffffffffffffffffffffffffff021916908373ffffffffffffffffffffffffffffffffffffffff1602179055506001600260003373ffffffffffffffffffffffffffffffffffffffff1673ffffffffffffffffffffffffffffffffffffffff16815260200190815260200160002060006101000a81548160ff0219169083151502179055505b565b80600360006101000a81548160ff021916908360ff16021790555050565b8280546106d99061101a565b90600052602060002090601f0160209004810192826106fb5760008555610742565b82601f1061071457805160ff1916838001178555610742565b82800160010185558215610742579182015b82811115610741578251825591602001919060010190610726565b5b50905061074f9190610753565b5090565b5b8082111561076c576000816000905550600101610754565b5090565b600061078361077e84610df4565b610dcf565b905080838252602082019050828560208602820111156107a257600080fd5b60005b858110156107d257816107b888826108e3565b8452602084019350602083019250506001810190506107a5565b5050509392505050565b60006107ef6107ea84610e20565b610dcf565b9050808382526020820190508260005b8581101561082f57813585016108158882610976565b8452602084019350602083019250506001810190506107ff565b5050509392505050565b600061084c61084784610e4c565b610dcf565b9050808382526020820190508285602086028201111561086b57600080fd5b60005b8581101561089b578161088188826109b5565b84526020840193506020830192505060018101905061086e565b5050509392505050565b60006108b86108b384610e78565b610dcf565b9050828152602081018484840111156108d057600080fd5b6108db848285610fd8565b509392505050565b6000813590506108f2816111cc565b92915050565b600082601f83011261090957600080fd5b8135610919848260208601610770565b91505092915050565b600082601f83011261093357600080fd5b81356109438482602086016107dc565b91505092915050565b600082601f83011261095d57600080fd5b813561096d848260208601610839565b91505092915050565b600082601f83011261098757600080fd5b81356109978482602086016108a5565b91505092915050565b6000813590506109af816111e3565b92915050565b6000813590506109c4816111fa565b92915050565b6000806000606084860312156109df57600080fd5b600084013567ffffffffffffffff8111156109f957600080fd5b610a05868287016108f8565b935050602084013567ffffffffffffffff811115610a2257600080fd5b610a2e86828701610922565b925050604084013567ffffffffffffffff811115610a4b57600080fd5b610a578682870161094c565b9150509250925092565b600060208284031215610a7357600080fd5b6000610a81848285016109a0565b91505092915050565b600060208284031215610a9c57600080fd5b6000610aaa848285016109b5565b91505092915050565b6000610abf8383610adf565b60208301905092915050565b6000610ad78383610c88565b905092915050565b610ae881610f8f565b82525050565b610af781610f8f565b82525050565b6000610b0882610ee3565b610b128185610f1e565b9350610b1d83610ea9565b8060005b83811015610b4e578151610b358882610ab3565b9750610b4083610f04565b925050600181019050610b21565b5085935050505092915050565b6000610b6682610eee565b610b708185610f2f565b935083602082028501610b8285610eb9565b8060005b85811015610bbd57848403895281610b9e8582610acb565b9450610ba983610f11565b925060208a01995050600181019050610b86565b50829750879550505050505092915050565b6000610bda82610ef9565b610be48185610f51565b9350610bf4818560208601610fe7565b610bfd816111a1565b840191505092915050565b60008154610c158161101a565b610c1f8186610f40565b94506001821660008114610c3a5760018114610c4c57610c7f565b60ff1983168652602086019350610c7f565b610c5585610ece565b60005b83811015610c7757815481890152600182019150602081019050610c58565b808801955050505b50505092915050565b6000608083016000808401549050610c9f8161104c565b610cac6000870182610adf565b50600184018583036020870152610cc38382610c08565b92505060028401549050610cd681611066565b610ce36040870182610d06565b50610ced81611080565b610cfa6060870182610d06565b50819250505092915050565b610d0f81610fcb565b82525050565b610d1e81610fcb565b82525050565b6000602082019050610d396000830184610aee565b92915050565b6000608082019050610d546000830187610aee565b8181036020830152610d668186610bcf565b9050610d756040830185610d15565b610d826060830184610d15565b95945050505050565b60006020820190508181036000830152610da58184610afd565b905092915050565b60006020820190508181036000830152610dc78184610b5b565b905092915050565b6000610dd9610dea565b9050610de5828261109a565b919050565b6000604051905090565b600067ffffffffffffffff821115610e0f57610e0e611172565b5b602082029050602081019050919050565b600067ffffffffffffffff821115610e3b57610e3a611172565b5b602082029050602081019050919050565b600067ffffffffffffffff821115610e6757610e66611172565b5b602082029050602081019050919050565b600067ffffffffffffffff821115610e9357610e92611172565b5b610e9c826111a1565b9050602081019050919050565b6000819050602082019050919050565b60008190508160005260206000209050919050565b60008190508160005260206000209050919050565b600081519050919050565b600081549050919050565b600081519050919050565b6000602082019050919050565b6000600382019050919050565b600082825260208201905092915050565b600082825260208201905092915050565b600082825260208201905092915050565b600082825260208201905092915050565b600073ffffffffffffffffffffffffffffffffffffffff82169050919050565b600060ff82169050919050565b6000610f9a82610fa1565b9050919050565b600073ffffffffffffffffffffffffffffffffffffffff82169050919050565b6000819050919050565b600060ff82169050919050565b82818337600083830152505050565b60005b83811015611005578082015181840152602081019050610fea565b83811115611014576000848401525b50505050565b6000600282049050600182168061103257607f821691505b6020821081141561104657611045611143565b5b50919050565b600061105f61105a836111b2565b610f62565b9050919050565b6000611079611074836111b2565b610f82565b9050919050565b600061109361108e836111bf565b610f82565b9050919050565b6110a3826111a1565b810181811067ffffffffffffffff821117156110c2576110c1611172565b5b80604052505050565b60006110d682610fc1565b91507fffffffffffffffffffffffffffffffffffffffffffffffffffffffffffffffff82141561110957611108611114565b5b600182019050919050565b7f4e487b7100000000000000000000000000000000000000000000000000000000600052601160045260246000fd5b7f4e487b7100000000000000000000000000000000000000000000000000000000600052602260045260246000fd5b7f4e487b7100000000000000000000000000000000000000000000000000000000600052604160045260246000fd5b6000601f19601f8301169050919050565b60008160001c9050919050565b60008160081c9050919050565b6111d581610f8f565b81146111e057600080fd5b50565b6111ec81610fc1565b81146111f757600080fd5b50565b61120381610fcb565b811461120e57600080fd5b5056fea26469706673582212208ed9d447d99868d74ed3c458398c43a5c2d6ba35a30f3055a7fdbbcc379f27fc64736f6c63430008020033","opcodes":"PUSH1 0x80 PUSH1 0x40 MSTORE CALLVALUE DUP1 ISZERO PUSH2 0x10 JUMPI PUSH1 0x0 DUP1 REVERT JUMPDEST POP CALLER PUSH1 0x0 DUP1 PUSH2 0x100 EXP DUP2 SLOAD DUP2 PUSH20 0xFFFFFFFFFFFFFFFFFFFFFFFFFFFFFFFFFFFFFFFF MUL NOT AND SWAP1 DUP4 PUSH20 0xFFFFFFFFFFFFFFFFFFFFFFFFFFFFFFFFFFFFFFFF AND MUL OR SWAP1 SSTORE POP PUSH2 0x1247 DUP1 PUSH2 0x60 PUSH1 0x0 CODECOPY PUSH1 0x0 RETURN INVALID PUSH1 0x80 PUSH1 0x40 MSTORE CALLVALUE DUP1 ISZERO PUSH2 0x10 JUMPI PUSH1 0x0 DUP1 REVERT JUMPDEST POP PUSH1 0x4 CALLDATASIZE LT PUSH2 0x61 JUMPI PUSH1 0x0 CALLDATALOAD PUSH1 0xE0 SHR DUP1 PUSH3 0xCE8E3E EQ PUSH2 0x66 JUMPI DUP1 PUSH4 0x1DE43C4B EQ PUSH2 0x84 JUMPI DUP1 PUSH4 0x20BC4425 EQ PUSH2 0xB7 JUMPI DUP1 PUSH4 0x57C6245B EQ PUSH2 0xD5 JUMPI DUP1 PUSH4 0x8B2ABE87 EQ PUSH2 0xF1 JUMPI DUP1 PUSH4 0xF873A131 EQ PUSH2 0xFB JUMPI JUMPDEST PUSH1 0x0 DUP1 REVERT JUMPDEST PUSH2 0x6E PUSH2 0x117 JUMP JUMPDEST PUSH1 0x40 MLOAD PUSH2 0x7B SWAP2 SWAP1 PUSH2 0xD8B JUMP JUMPDEST PUSH1 0x40 MLOAD DUP1 SWAP2 SUB SWAP1 RETURN JUMPDEST PUSH2 0x9E PUSH1 0x4 DUP1 CALLDATASIZE SUB DUP2 ADD SWAP1 PUSH2 0x99 SWAP2 SWAP1 PUSH2 0xA61 JUMP JUMPDEST PUSH2 0x1A5 JUMP JUMPDEST PUSH1 0x40 MLOAD PUSH2 0xAE SWAP5 SWAP4 SWAP3 SWAP2 SWAP1 PUSH2 0xD3F JUMP JUMPDEST PUSH1 0x40 MLOAD DUP1 SWAP2 SUB SWAP1 RETURN JUMPDEST PUSH2 0xBF PUSH2 0x2A7 JUMP JUMPDEST PUSH1 0x40 MLOAD PUSH2 0xCC SWAP2 SWAP1 PUSH2 0xD24 JUMP JUMPDEST PUSH1 0x40 MLOAD DUP1 SWAP2 SUB SWAP1 RETURN JUMPDEST PUSH2 0xEF PUSH1 0x4 DUP1 CALLDATASIZE SUB DUP2 ADD SWAP1 PUSH2 0xEA SWAP2 SWAP1 PUSH2 0x9CA JUMP JUMPDEST PUSH2 0x2D0 JUMP JUMPDEST STOP JUMPDEST PUSH2 0xF9 PUSH2 0x5A0 JUMP JUMPDEST STOP JUMPDEST PUSH2 0x115 PUSH1 0x4 DUP1 CALLDATASIZE SUB DUP2 ADD SWAP1 PUSH2 0x110 SWAP2 SWAP1 PUSH2 0xA8A JUMP JUMPDEST PUSH2 0x6AF JUMP JUMPDEST STOP JUMPDEST PUSH1 0x60 PUSH1 0x1 DUP1 SLOAD DUP1 PUSH1 0x20 MUL PUSH1 0x20 ADD PUSH1 0x40 MLOAD SWAP1 DUP2 ADD PUSH1 0x40 MSTORE DUP1 SWAP3 SWAP2 SWAP1 DUP2 DUP2 MSTORE PUSH1 0x20 ADD DUP3 DUP1 SLOAD DUP1 ISZERO PUSH2 0x19B JUMPI PUSH1 0x20 MUL DUP3 ADD SWAP2 SWAP1 PUSH1 0x0 MSTORE PUSH1 0x20 PUSH1 0x0 KECCAK256 SWAP1 JUMPDEST DUP2 PUSH1 0x0 SWAP1 SLOAD SWAP1 PUSH2 0x100 EXP SWAP1 DIV PUSH20 0xFFFFFFFFFFFFFFFFFFFFFFFFFFFFFFFFFFFFFFFF AND PUSH20 0xFFFFFFFFFFFFFFFFFFFFFFFFFFFFFFFFFFFFFFFF AND DUP2 MSTORE PUSH1 0x20 ADD SWAP1 PUSH1 0x1 ADD SWAP1 DUP1 DUP4 GT PUSH2 0x151 JUMPI JUMPDEST POP POP POP POP POP SWAP1 POP SWAP1 JUMP JUMPDEST PUSH1 0x4 DUP2 DUP2 SLOAD DUP2 LT PUSH2 0x1B5 JUMPI PUSH1 0x0 DUP1 REVERT JUMPDEST SWAP1 PUSH1 0x0 MSTORE PUSH1 0x20 PUSH1 0x0 KECCAK256 SWAP1 PUSH1 0x3 MUL ADD PUSH1 0x0 SWAP2 POP SWAP1 POP DUP1 PUSH1 0x0 ADD PUSH1 0x0 SWAP1 SLOAD SWAP1 PUSH2 0x100 EXP SWAP1 DIV PUSH20 0xFFFFFFFFFFFFFFFFFFFFFFFFFFFFFFFFFFFFFFFF AND SWAP1 DUP1 PUSH1 0x1 ADD DUP1 SLOAD PUSH2 0x1FE SWAP1 PUSH2 0x101A JUMP JUMPDEST DUP1 PUSH1 0x1F ADD PUSH1 0x20 DUP1 SWAP2 DIV MUL PUSH1 0x20 ADD PUSH1 0x40 MLOAD SWAP1 DUP2 ADD PUSH1 0x40 MSTORE DUP1 SWAP3 SWAP2 SWAP1 DUP2 DUP2 MSTORE PUSH1 0x20 ADD DUP3 DUP1 SLOAD PUSH2 0x22A SWAP1 PUSH2 0x101A JUMP JUMPDEST DUP1 ISZERO PUSH2 0x277 JUMPI DUP1 PUSH1 0x1F LT PUSH2 0x24C JUMPI PUSH2 0x100 DUP1 DUP4 SLOAD DIV MUL DUP4 MSTORE SWAP2 PUSH1 0x20 ADD SWAP2 PUSH2 0x277 JUMP JUMPDEST DUP3 ADD SWAP2 SWAP1 PUSH1 0x0 MSTORE PUSH1 0x20 PUSH1 0x0 KECCAK256 SWAP1 JUMPDEST DUP2 SLOAD DUP2 MSTORE SWAP1 PUSH1 0x1 ADD SWAP1 PUSH1 0x20 ADD DUP1 DUP4 GT PUSH2 0x25A JUMPI DUP3 SWAP1 SUB PUSH1 0x1F AND DUP3 ADD SWAP2 JUMPDEST POP POP POP POP POP SWAP1 DUP1 PUSH1 0x2 ADD PUSH1 0x0 SWAP1 SLOAD SWAP1 PUSH2 0x100 EXP SWAP1 DIV PUSH1 0xFF AND SWAP1 DUP1 PUSH1 0x2 ADD PUSH1 0x1 SWAP1 SLOAD SWAP1 PUSH2 0x100 EXP SWAP1 DIV PUSH1 0xFF AND SWAP1 POP DUP5 JUMP JUMPDEST PUSH1 0x0 DUP1 PUSH1 0x0 SWAP1 SLOAD SWAP1 PUSH2 0x100 EXP SWAP1 DIV PUSH20 0xFFFFFFFFFFFFFFFFFFFFFFFFFFFFFFFFFFFFFFFF AND SWAP1 POP SWAP1 JUMP JUMPDEST PUSH1 0x0 JUMPDEST DUP3 MLOAD DUP2 LT ISZERO PUSH2 0x562 JUMPI DUP4 DUP2 DUP2 MLOAD DUP2 LT PUSH2 0x315 JUMPI PUSH32 0x4E487B7100000000000000000000000000000000000000000000000000000000 PUSH1 0x0 MSTORE PUSH1 0x32 PUSH1 0x4 MSTORE PUSH1 0x24 PUSH1 0x0 REVERT JUMPDEST PUSH1 0x20 MUL PUSH1 0x20 ADD ADD MLOAD PUSH1 0x4 DUP3 DUP2 SLOAD DUP2 LT PUSH2 0x357 JUMPI PUSH32 0x4E487B7100000000000000000000000000000000000000000000000000000000 PUSH1 0x0 MSTORE PUSH1 0x32 PUSH1 0x4 MSTORE PUSH1 0x24 PUSH1 0x0 REVERT JUMPDEST SWAP1 PUSH1 0x0 MSTORE PUSH1 0x20 PUSH1 0x0 KECCAK256 SWAP1 PUSH1 0x3 MUL ADD PUSH1 0x0 ADD PUSH1 0x0 PUSH2 0x100 EXP DUP2 SLOAD DUP2 PUSH20 0xFFFFFFFFFFFFFFFFFFFFFFFFFFFFFFFFFFFFFFFF MUL NOT AND SWAP1 DUP4 PUSH20 0xFFFFFFFFFFFFFFFFFFFFFFFFFFFFFFFFFFFFFFFF AND MUL OR SWAP1 SSTORE POP DUP3 DUP2 DUP2 MLOAD DUP2 LT PUSH2 0x3DF JUMPI PUSH32 0x4E487B7100000000000000000000000000000000000000000000000000000000 PUSH1 0x0 MSTORE PUSH1 0x32 PUSH1 0x4 MSTORE PUSH1 0x24 PUSH1 0x0 REVERT JUMPDEST PUSH1 0x20 MUL PUSH1 0x20 ADD ADD MLOAD PUSH1 0x4 DUP3 DUP2 SLOAD DUP2 LT PUSH2 0x421 JUMPI PUSH32 0x4E487B7100000000000000000000000000000000000000000000000000000000 PUSH1 0x0 MSTORE PUSH1 0x32 PUSH1 0x4 MSTORE PUSH1 0x24 PUSH1 0x0 REVERT JUMPDEST SWAP1 PUSH1 0x0 MSTORE PUSH1 0x20 PUSH1 0x0 KECCAK256 SWAP1 PUSH1 0x3 MUL ADD PUSH1 0x1 ADD SWAP1 DUP1 MLOAD SWAP1 PUSH1 0x20 ADD SWAP1 PUSH2 0x445 SWAP3 SWAP2 SWAP1 PUSH2 0x6CD JUMP JUMPDEST POP DUP2 DUP2 DUP2 MLOAD DUP2 LT PUSH2 0x47F JUMPI PUSH32 0x4E487B7100000000000000000000000000000000000000000000000000000000 PUSH1 0x0 MSTORE PUSH1 0x32 PUSH1 0x4 MSTORE PUSH1 0x24 PUSH1 0x0 REVERT JUMPDEST PUSH1 0x20 MUL PUSH1 0x20 ADD ADD MLOAD PUSH1 0x4 DUP3 DUP2 SLOAD DUP2 LT PUSH2 0x4C1 JUMPI PUSH32 0x4E487B7100000000000000000000000000000000000000000000000000000000 PUSH1 0x0 MSTORE PUSH1 0x32 PUSH1 0x4 MSTORE PUSH1 0x24 PUSH1 0x0 REVERT JUMPDEST SWAP1 PUSH1 0x0 MSTORE PUSH1 0x20 PUSH1 0x0 KECCAK256 SWAP1 PUSH1 0x3 MUL ADD PUSH1 0x2 ADD PUSH1 0x0 PUSH2 0x100 EXP DUP2 SLOAD DUP2 PUSH1 0xFF MUL NOT AND SWAP1 DUP4 PUSH1 0xFF AND MUL OR SWAP1 SSTORE POP PUSH1 0x0 PUSH1 0x4 DUP3 DUP2 SLOAD DUP2 LT PUSH2 0x526 JUMPI PUSH32 0x4E487B7100000000000000000000000000000000000000000000000000000000 PUSH1 0x0 MSTORE PUSH1 0x32 PUSH1 0x4 MSTORE PUSH1 0x24 PUSH1 0x0 REVERT JUMPDEST SWAP1 PUSH1 0x0 MSTORE PUSH1 0x20 PUSH1 0x0 KECCAK256 SWAP1 PUSH1 0x3 MUL ADD PUSH1 0x2 ADD PUSH1 0x1 PUSH2 0x100 EXP DUP2 SLOAD DUP2 PUSH1 0xFF MUL NOT AND SWAP1 DUP4 PUSH1 0xFF AND MUL OR SWAP1 SSTORE POP DUP1 DUP1 PUSH2 0x55A SWAP1 PUSH2 0x10CB JUMP JUMPDEST SWAP2 POP POP PUSH2 0x2D3 JUMP JUMPDEST POP PUSH32 0xBC8FABA43EC6A3612332F47B50CFCD69819E0C688B9E6406E610631DCF55B8F7 PUSH1 0x4 PUSH1 0x40 MLOAD PUSH2 0x593 SWAP2 SWAP1 PUSH2 0xDAD JUMP JUMPDEST PUSH1 0x40 MLOAD DUP1 SWAP2 SUB SWAP1 LOG1 POP POP POP JUMP JUMPDEST PUSH1 0x2 PUSH1 0x0 CALLER PUSH20 0xFFFFFFFFFFFFFFFFFFFFFFFFFFFFFFFFFFFFFFFF AND PUSH20 0xFFFFFFFFFFFFFFFFFFFFFFFFFFFFFFFFFFFFFFFF AND DUP2 MSTORE PUSH1 0x20 ADD SWAP1 DUP2 MSTORE PUSH1 0x20 ADD PUSH1 0x0 KECCAK256 PUSH1 0x0 SWAP1 SLOAD SWAP1 PUSH2 0x100 EXP SWAP1 DIV PUSH1 0xFF AND PUSH2 0x6AD JUMPI PUSH1 0x1 CALLER SWAP1 DUP1 PUSH1 0x1 DUP2 SLOAD ADD DUP1 DUP3 SSTORE DUP1 SWAP2 POP POP PUSH1 0x1 SWAP1 SUB SWAP1 PUSH1 0x0 MSTORE PUSH1 0x20 PUSH1 0x0 KECCAK256 ADD PUSH1 0x0 SWAP1 SWAP2 SWAP1 SWAP2 SWAP1 SWAP2 PUSH2 0x100 EXP DUP2 SLOAD DUP2 PUSH20 0xFFFFFFFFFFFFFFFFFFFFFFFFFFFFFFFFFFFFFFFF MUL NOT AND SWAP1 DUP4 PUSH20 0xFFFFFFFFFFFFFFFFFFFFFFFFFFFFFFFFFFFFFFFF AND MUL OR SWAP1 SSTORE POP PUSH1 0x1 PUSH1 0x2 PUSH1 0x0 CALLER PUSH20 0xFFFFFFFFFFFFFFFFFFFFFFFFFFFFFFFFFFFFFFFF AND PUSH20 0xFFFFFFFFFFFFFFFFFFFFFFFFFFFFFFFFFFFFFFFF AND DUP2 MSTORE PUSH1 0x20 ADD SWAP1 DUP2 MSTORE PUSH1 0x20 ADD PUSH1 0x0 KECCAK256 PUSH1 0x0 PUSH2 0x100 EXP DUP2 SLOAD DUP2 PUSH1 0xFF MUL NOT AND SWAP1 DUP4 ISZERO ISZERO MUL OR SWAP1 SSTORE POP JUMPDEST JUMP JUMPDEST DUP1 PUSH1 0x3 PUSH1 0x0 PUSH2 0x100 EXP DUP2 SLOAD DUP2 PUSH1 0xFF MUL NOT AND SWAP1 DUP4 PUSH1 0xFF AND MUL OR SWAP1 SSTORE POP POP JUMP JUMPDEST DUP3 DUP1 SLOAD PUSH2 0x6D9 SWAP1 PUSH2 0x101A JUMP JUMPDEST SWAP1 PUSH1 0x0 MSTORE PUSH1 0x20 PUSH1 0x0 KECCAK256 SWAP1 PUSH1 0x1F ADD PUSH1 0x20 SWAP1 DIV DUP2 ADD SWAP3 DUP3 PUSH2 0x6FB JUMPI PUSH1 0x0 DUP6 SSTORE PUSH2 0x742 JUMP JUMPDEST DUP3 PUSH1 0x1F LT PUSH2 0x714 JUMPI DUP1 MLOAD PUSH1 0xFF NOT AND DUP4 DUP1 ADD OR DUP6 SSTORE PUSH2 0x742 JUMP JUMPDEST DUP3 DUP1 ADD PUSH1 0x1 ADD DUP6 SSTORE DUP3 ISZERO PUSH2 0x742 JUMPI SWAP2 DUP3 ADD JUMPDEST DUP3 DUP2 GT ISZERO PUSH2 0x741 JUMPI DUP3 MLOAD DUP3 SSTORE SWAP2 PUSH1 0x20 ADD SWAP2 SWAP1 PUSH1 0x1 ADD SWAP1 PUSH2 0x726 JUMP JUMPDEST JUMPDEST POP SWAP1 POP PUSH2 0x74F SWAP2 SWAP1 PUSH2 0x753 JUMP JUMPDEST POP SWAP1 JUMP JUMPDEST JUMPDEST DUP1 DUP3 GT ISZERO PUSH2 0x76C JUMPI PUSH1 0x0 DUP2 PUSH1 0x0 SWAP1 SSTORE POP PUSH1 0x1 ADD PUSH2 0x754 JUMP JUMPDEST POP SWAP1 JUMP JUMPDEST PUSH1 0x0 PUSH2 0x783 PUSH2 0x77E DUP5 PUSH2 0xDF4 JUMP JUMPDEST PUSH2 0xDCF JUMP JUMPDEST SWAP1 POP DUP1 DUP4 DUP3 MSTORE PUSH1 0x20 DUP3 ADD SWAP1 POP DUP3 DUP6 PUSH1 0x20 DUP7 MUL DUP3 ADD GT ISZERO PUSH2 0x7A2 JUMPI PUSH1 0x0 DUP1 REVERT JUMPDEST PUSH1 0x0 JUMPDEST DUP6 DUP2 LT ISZERO PUSH2 0x7D2 JUMPI DUP2 PUSH2 0x7B8 DUP9 DUP3 PUSH2 0x8E3 JUMP JUMPDEST DUP5 MSTORE PUSH1 0x20 DUP5 ADD SWAP4 POP PUSH1 0x20 DUP4 ADD SWAP3 POP POP PUSH1 0x1 DUP2 ADD SWAP1 POP PUSH2 0x7A5 JUMP JUMPDEST POP POP POP SWAP4 SWAP3 POP POP POP JUMP JUMPDEST PUSH1 0x0 PUSH2 0x7EF PUSH2 0x7EA DUP5 PUSH2 0xE20 JUMP JUMPDEST PUSH2 0xDCF JUMP JUMPDEST SWAP1 POP DUP1 DUP4 DUP3 MSTORE PUSH1 0x20 DUP3 ADD SWAP1 POP DUP3 PUSH1 0x0 JUMPDEST DUP6 DUP2 LT ISZERO PUSH2 0x82F JUMPI DUP2 CALLDATALOAD DUP6 ADD PUSH2 0x815 DUP9 DUP3 PUSH2 0x976 JUMP JUMPDEST DUP5 MSTORE PUSH1 0x20 DUP5 ADD SWAP4 POP PUSH1 0x20 DUP4 ADD SWAP3 POP POP PUSH1 0x1 DUP2 ADD SWAP1 POP PUSH2 0x7FF JUMP JUMPDEST POP POP POP SWAP4 SWAP3 POP POP POP JUMP JUMPDEST PUSH1 0x0 PUSH2 0x84C PUSH2 0x847 DUP5 PUSH2 0xE4C JUMP JUMPDEST PUSH2 0xDCF JUMP JUMPDEST SWAP1 POP DUP1 DUP4 DUP3 MSTORE PUSH1 0x20 DUP3 ADD SWAP1 POP DUP3 DUP6 PUSH1 0x20 DUP7 MUL DUP3 ADD GT ISZERO PUSH2 0x86B JUMPI PUSH1 0x0 DUP1 REVERT JUMPDEST PUSH1 0x0 JUMPDEST DUP6 DUP2 LT ISZERO PUSH2 0x89B JUMPI DUP2 PUSH2 0x881 DUP9 DUP3 PUSH2 0x9B5 JUMP JUMPDEST DUP5 MSTORE PUSH1 0x20 DUP5 ADD SWAP4 POP PUSH1 0x20 DUP4 ADD SWAP3 POP POP PUSH1 0x1 DUP2 ADD SWAP1 POP PUSH2 0x86E JUMP JUMPDEST POP POP POP SWAP4 SWAP3 POP POP POP JUMP JUMPDEST PUSH1 0x0 PUSH2 0x8B8 PUSH2 0x8B3 DUP5 PUSH2 0xE78 JUMP JUMPDEST PUSH2 0xDCF JUMP JUMPDEST SWAP1 POP DUP3 DUP2 MSTORE PUSH1 0x20 DUP2 ADD DUP5 DUP5 DUP5 ADD GT ISZERO PUSH2 0x8D0 JUMPI PUSH1 0x0 DUP1 REVERT JUMPDEST PUSH2 0x8DB DUP5 DUP3 DUP6 PUSH2 0xFD8 JUMP JUMPDEST POP SWAP4 SWAP3 POP POP POP JUMP JUMPDEST PUSH1 0x0 DUP2 CALLDATALOAD SWAP1 POP PUSH2 0x8F2 DUP2 PUSH2 0x11CC JUMP JUMPDEST SWAP3 SWAP2 POP POP JUMP JUMPDEST PUSH1 0x0 DUP3 PUSH1 0x1F DUP4 ADD SLT PUSH2 0x909 JUMPI PUSH1 0x0 DUP1 REVERT JUMPDEST DUP2 CALLDATALOAD PUSH2 0x919 DUP5 DUP3 PUSH1 0x20 DUP7 ADD PUSH2 0x770 JUMP JUMPDEST SWAP2 POP POP SWAP3 SWAP2 POP POP JUMP JUMPDEST PUSH1 0x0 DUP3 PUSH1 0x1F DUP4 ADD SLT PUSH2 0x933 JUMPI PUSH1 0x0 DUP1 REVERT JUMPDEST DUP2 CALLDATALOAD PUSH2 0x943 DUP5 DUP3 PUSH1 0x20 DUP7 ADD PUSH2 0x7DC JUMP JUMPDEST SWAP2 POP POP SWAP3 SWAP2 POP POP JUMP JUMPDEST PUSH1 0x0 DUP3 PUSH1 0x1F DUP4 ADD SLT PUSH2 0x95D JUMPI PUSH1 0x0 DUP1 REVERT JUMPDEST DUP2 CALLDATALOAD PUSH2 0x96D DUP5 DUP3 PUSH1 0x20 DUP7 ADD PUSH2 0x839 JUMP JUMPDEST SWAP2 POP POP SWAP3 SWAP2 POP POP JUMP JUMPDEST PUSH1 0x0 DUP3 PUSH1 0x1F DUP4 ADD SLT PUSH2 0x987 JUMPI PUSH1 0x0 DUP1 REVERT JUMPDEST DUP2 CALLDATALOAD PUSH2 0x997 DUP5 DUP3 PUSH1 0x20 DUP7 ADD PUSH2 0x8A5 JUMP JUMPDEST SWAP2 POP POP SWAP3 SWAP2 POP POP JUMP JUMPDEST PUSH1 0x0 DUP2 CALLDATALOAD SWAP1 POP PUSH2 0x9AF DUP2 PUSH2 0x11E3 JUMP JUMPDEST SWAP3 SWAP2 POP POP JUMP JUMPDEST PUSH1 0x0 DUP2 CALLDATALOAD SWAP1 POP PUSH2 0x9C4 DUP2 PUSH2 0x11FA JUMP JUMPDEST SWAP3 SWAP2 POP POP JUMP JUMPDEST PUSH1 0x0 DUP1 PUSH1 0x0 PUSH1 0x60 DUP5 DUP7 SUB SLT ISZERO PUSH2 0x9DF JUMPI PUSH1 0x0 DUP1 REVERT JUMPDEST PUSH1 0x0 DUP5 ADD CALLDATALOAD PUSH8 0xFFFFFFFFFFFFFFFF DUP2 GT ISZERO PUSH2 0x9F9 JUMPI PUSH1 0x0 DUP1 REVERT JUMPDEST PUSH2 0xA05 DUP7 DUP3 DUP8 ADD PUSH2 0x8F8 JUMP JUMPDEST SWAP4 POP POP PUSH1 0x20 DUP5 ADD CALLDATALOAD PUSH8 0xFFFFFFFFFFFFFFFF DUP2 GT ISZERO PUSH2 0xA22 JUMPI PUSH1 0x0 DUP1 REVERT JUMPDEST PUSH2 0xA2E DUP7 DUP3 DUP8 ADD PUSH2 0x922 JUMP JUMPDEST SWAP3 POP POP PUSH1 0x40 DUP5 ADD CALLDATALOAD PUSH8 0xFFFFFFFFFFFFFFFF DUP2 GT ISZERO PUSH2 0xA4B JUMPI PUSH1 0x0 DUP1 REVERT JUMPDEST PUSH2 0xA57 DUP7 DUP3 DUP8 ADD PUSH2 0x94C JUMP JUMPDEST SWAP2 POP POP SWAP3 POP SWAP3 POP SWAP3 JUMP JUMPDEST PUSH1 0x0 PUSH1 0x20 DUP3 DUP5 SUB SLT ISZERO PUSH2 0xA73 JUMPI PUSH1 0x0 DUP1 REVERT JUMPDEST PUSH1 0x0 PUSH2 0xA81 DUP5 DUP3 DUP6 ADD PUSH2 0x9A0 JUMP JUMPDEST SWAP2 POP POP SWAP3 SWAP2 POP POP JUMP JUMPDEST PUSH1 0x0 PUSH1 0x20 DUP3 DUP5 SUB SLT ISZERO PUSH2 0xA9C JUMPI PUSH1 0x0 DUP1 REVERT JUMPDEST PUSH1 0x0 PUSH2 0xAAA DUP5 DUP3 DUP6 ADD PUSH2 0x9B5 JUMP JUMPDEST SWAP2 POP POP SWAP3 SWAP2 POP POP JUMP JUMPDEST PUSH1 0x0 PUSH2 0xABF DUP4 DUP4 PUSH2 0xADF JUMP JUMPDEST PUSH1 0x20 DUP4 ADD SWAP1 POP SWAP3 SWAP2 POP POP JUMP JUMPDEST PUSH1 0x0 PUSH2 0xAD7 DUP4 DUP4 PUSH2 0xC88 JUMP JUMPDEST SWAP1 POP SWAP3 SWAP2 POP POP JUMP JUMPDEST PUSH2 0xAE8 DUP2 PUSH2 0xF8F JUMP JUMPDEST DUP3 MSTORE POP POP JUMP JUMPDEST PUSH2 0xAF7 DUP2 PUSH2 0xF8F JUMP JUMPDEST DUP3 MSTORE POP POP JUMP JUMPDEST PUSH1 0x0 PUSH2 0xB08 DUP3 PUSH2 0xEE3 JUMP JUMPDEST PUSH2 0xB12 DUP2 DUP6 PUSH2 0xF1E JUMP JUMPDEST SWAP4 POP PUSH2 0xB1D DUP4 PUSH2 0xEA9 JUMP JUMPDEST DUP1 PUSH1 0x0 JUMPDEST DUP4 DUP2 LT ISZERO PUSH2 0xB4E JUMPI DUP2 MLOAD PUSH2 0xB35 DUP9 DUP3 PUSH2 0xAB3 JUMP JUMPDEST SWAP8 POP PUSH2 0xB40 DUP4 PUSH2 0xF04 JUMP JUMPDEST SWAP3 POP POP PUSH1 0x1 DUP2 ADD SWAP1 POP PUSH2 0xB21 JUMP JUMPDEST POP DUP6 SWAP4 POP POP POP POP SWAP3 SWAP2 POP POP JUMP JUMPDEST PUSH1 0x0 PUSH2 0xB66 DUP3 PUSH2 0xEEE JUMP JUMPDEST PUSH2 0xB70 DUP2 DUP6 PUSH2 0xF2F JUMP JUMPDEST SWAP4 POP DUP4 PUSH1 0x20 DUP3 MUL DUP6 ADD PUSH2 0xB82 DUP6 PUSH2 0xEB9 JUMP JUMPDEST DUP1 PUSH1 0x0 JUMPDEST DUP6 DUP2 LT ISZERO PUSH2 0xBBD JUMPI DUP5 DUP5 SUB DUP10 MSTORE DUP2 PUSH2 0xB9E DUP6 DUP3 PUSH2 0xACB JUMP JUMPDEST SWAP5 POP PUSH2 0xBA9 DUP4 PUSH2 0xF11 JUMP JUMPDEST SWAP3 POP PUSH1 0x20 DUP11 ADD SWAP10 POP POP PUSH1 0x1 DUP2 ADD SWAP1 POP PUSH2 0xB86 JUMP JUMPDEST POP DUP3 SWAP8 POP DUP8 SWAP6 POP POP POP POP POP POP SWAP3 SWAP2 POP POP JUMP JUMPDEST PUSH1 0x0 PUSH2 0xBDA DUP3 PUSH2 0xEF9 JUMP JUMPDEST PUSH2 0xBE4 DUP2 DUP6 PUSH2 0xF51 JUMP JUMPDEST SWAP4 POP PUSH2 0xBF4 DUP2 DUP6 PUSH1 0x20 DUP7 ADD PUSH2 0xFE7 JUMP JUMPDEST PUSH2 0xBFD DUP2 PUSH2 0x11A1 JUMP JUMPDEST DUP5 ADD SWAP2 POP POP SWAP3 SWAP2 POP POP JUMP JUMPDEST PUSH1 0x0 DUP2 SLOAD PUSH2 0xC15 DUP2 PUSH2 0x101A JUMP JUMPDEST PUSH2 0xC1F DUP2 DUP7 PUSH2 0xF40 JUMP JUMPDEST SWAP5 POP PUSH1 0x1 DUP3 AND PUSH1 0x0 DUP2 EQ PUSH2 0xC3A JUMPI PUSH1 0x1 DUP2 EQ PUSH2 0xC4C JUMPI PUSH2 0xC7F JUMP JUMPDEST PUSH1 0xFF NOT DUP4 AND DUP7 MSTORE PUSH1 0x20 DUP7 ADD SWAP4 POP PUSH2 0xC7F JUMP JUMPDEST PUSH2 0xC55 DUP6 PUSH2 0xECE JUMP JUMPDEST PUSH1 0x0 JUMPDEST DUP4 DUP2 LT ISZERO PUSH2 0xC77 JUMPI DUP2 SLOAD DUP2 DUP10 ADD MSTORE PUSH1 0x1 DUP3 ADD SWAP2 POP PUSH1 0x20 DUP2 ADD SWAP1 POP PUSH2 0xC58 JUMP JUMPDEST DUP1 DUP9 ADD SWAP6 POP POP POP JUMPDEST POP POP POP SWAP3 SWAP2 POP POP JUMP JUMPDEST PUSH1 0x0 PUSH1 0x80 DUP4 ADD PUSH1 0x0 DUP1 DUP5 ADD SLOAD SWAP1 POP PUSH2 0xC9F DUP2 PUSH2 0x104C JUMP JUMPDEST PUSH2 0xCAC PUSH1 0x0 DUP8 ADD DUP3 PUSH2 0xADF JUMP JUMPDEST POP PUSH1 0x1 DUP5 ADD DUP6 DUP4 SUB PUSH1 0x20 DUP8 ADD MSTORE PUSH2 0xCC3 DUP4 DUP3 PUSH2 0xC08 JUMP JUMPDEST SWAP3 POP POP PUSH1 0x2 DUP5 ADD SLOAD SWAP1 POP PUSH2 0xCD6 DUP2 PUSH2 0x1066 JUMP JUMPDEST PUSH2 0xCE3 PUSH1 0x40 DUP8 ADD DUP3 PUSH2 0xD06 JUMP JUMPDEST POP PUSH2 0xCED DUP2 PUSH2 0x1080 JUMP JUMPDEST PUSH2 0xCFA PUSH1 0x60 DUP8 ADD DUP3 PUSH2 0xD06 JUMP JUMPDEST POP DUP2 SWAP3 POP POP POP SWAP3 SWAP2 POP POP JUMP JUMPDEST PUSH2 0xD0F DUP2 PUSH2 0xFCB JUMP JUMPDEST DUP3 MSTORE POP POP JUMP JUMPDEST PUSH2 0xD1E DUP2 PUSH2 0xFCB JUMP JUMPDEST DUP3 MSTORE POP POP JUMP JUMPDEST PUSH1 0x0 PUSH1 0x20 DUP3 ADD SWAP1 POP PUSH2 0xD39 PUSH1 0x0 DUP4 ADD DUP5 PUSH2 0xAEE JUMP JUMPDEST SWAP3 SWAP2 POP POP JUMP JUMPDEST PUSH1 0x0 PUSH1 0x80 DUP3 ADD SWAP1 POP PUSH2 0xD54 PUSH1 0x0 DUP4 ADD DUP8 PUSH2 0xAEE JUMP JUMPDEST DUP2 DUP2 SUB PUSH1 0x20 DUP4 ADD MSTORE PUSH2 0xD66 DUP2 DUP7 PUSH2 0xBCF JUMP JUMPDEST SWAP1 POP PUSH2 0xD75 PUSH1 0x40 DUP4 ADD DUP6 PUSH2 0xD15 JUMP JUMPDEST PUSH2 0xD82 PUSH1 0x60 DUP4 ADD DUP5 PUSH2 0xD15 JUMP JUMPDEST SWAP6 SWAP5 POP POP POP POP POP JUMP JUMPDEST PUSH1 0x0 PUSH1 0x20 DUP3 ADD SWAP1 POP DUP2 DUP2 SUB PUSH1 0x0 DUP4 ADD MSTORE PUSH2 0xDA5 DUP2 DUP5 PUSH2 0xAFD JUMP JUMPDEST SWAP1 POP SWAP3 SWAP2 POP POP JUMP JUMPDEST PUSH1 0x0 PUSH1 0x20 DUP3 ADD SWAP1 POP DUP2 DUP2 SUB PUSH1 0x0 DUP4 ADD MSTORE PUSH2 0xDC7 DUP2 DUP5 PUSH2 0xB5B JUMP JUMPDEST SWAP1 POP SWAP3 SWAP2 POP POP JUMP JUMPDEST PUSH1 0x0 PUSH2 0xDD9 PUSH2 0xDEA JUMP JUMPDEST SWAP1 POP PUSH2 0xDE5 DUP3 DUP3 PUSH2 0x109A JUMP JUMPDEST SWAP2 SWAP1 POP JUMP JUMPDEST PUSH1 0x0 PUSH1 0x40 MLOAD SWAP1 POP SWAP1 JUMP JUMPDEST PUSH1 0x0 PUSH8 0xFFFFFFFFFFFFFFFF DUP3 GT ISZERO PUSH2 0xE0F JUMPI PUSH2 0xE0E PUSH2 0x1172 JUMP JUMPDEST JUMPDEST PUSH1 0x20 DUP3 MUL SWAP1 POP PUSH1 0x20 DUP2 ADD SWAP1 POP SWAP2 SWAP1 POP JUMP JUMPDEST PUSH1 0x0 PUSH8 0xFFFFFFFFFFFFFFFF DUP3 GT ISZERO PUSH2 0xE3B JUMPI PUSH2 0xE3A PUSH2 0x1172 JUMP JUMPDEST JUMPDEST PUSH1 0x20 DUP3 MUL SWAP1 POP PUSH1 0x20 DUP2 ADD SWAP1 POP SWAP2 SWAP1 POP JUMP JUMPDEST PUSH1 0x0 PUSH8 0xFFFFFFFFFFFFFFFF DUP3 GT ISZERO PUSH2 0xE67 JUMPI PUSH2 0xE66 PUSH2 0x1172 JUMP JUMPDEST JUMPDEST PUSH1 0x20 DUP3 MUL SWAP1 POP PUSH1 0x20 DUP2 ADD SWAP1 POP SWAP2 SWAP1 POP JUMP JUMPDEST PUSH1 0x0 PUSH8 0xFFFFFFFFFFFFFFFF DUP3 GT ISZERO PUSH2 0xE93 JUMPI PUSH2 0xE92 PUSH2 0x1172 JUMP JUMPDEST JUMPDEST PUSH2 0xE9C DUP3 PUSH2 0x11A1 JUMP JUMPDEST SWAP1 POP PUSH1 0x20 DUP2 ADD SWAP1 POP SWAP2 SWAP1 POP JUMP JUMPDEST PUSH1 0x0 DUP2 SWAP1 POP PUSH1 0x20 DUP3 ADD SWAP1 POP SWAP2 SWAP1 POP JUMP JUMPDEST PUSH1 0x0 DUP2 SWAP1 POP DUP2 PUSH1 0x0 MSTORE PUSH1 0x20 PUSH1 0x0 KECCAK256 SWAP1 POP SWAP2 SWAP1 POP JUMP JUMPDEST PUSH1 0x0 DUP2 SWAP1 POP DUP2 PUSH1 0x0 MSTORE PUSH1 0x20 PUSH1 0x0 KECCAK256 SWAP1 POP SWAP2 SWAP1 POP JUMP JUMPDEST PUSH1 0x0 DUP2 MLOAD SWAP1 POP SWAP2 SWAP1 POP JUMP JUMPDEST PUSH1 0x0 DUP2 SLOAD SWAP1 POP SWAP2 SWAP1 POP JUMP JUMPDEST PUSH1 0x0 DUP2 MLOAD SWAP1 POP SWAP2 SWAP1 POP JUMP JUMPDEST PUSH1 0x0 PUSH1 0x20 DUP3 ADD SWAP1 POP SWAP2 SWAP1 POP JUMP JUMPDEST PUSH1 0x0 PUSH1 0x3 DUP3 ADD SWAP1 POP SWAP2 SWAP1 POP JUMP JUMPDEST PUSH1 0x0 DUP3 DUP3 MSTORE PUSH1 0x20 DUP3 ADD SWAP1 POP SWAP3 SWAP2 POP POP JUMP JUMPDEST PUSH1 0x0 DUP3 DUP3 MSTORE PUSH1 0x20 DUP3 ADD SWAP1 POP SWAP3 SWAP2 POP POP JUMP JUMPDEST PUSH1 0x0 DUP3 DUP3 MSTORE PUSH1 0x20 DUP3 ADD SWAP1 POP SWAP3 SWAP2 POP POP JUMP JUMPDEST PUSH1 0x0 DUP3 DUP3 MSTORE PUSH1 0x20 DUP3 ADD SWAP1 POP SWAP3 SWAP2 POP POP JUMP JUMPDEST PUSH1 0x0 PUSH20 0xFFFFFFFFFFFFFFFFFFFFFFFFFFFFFFFFFFFFFFFF DUP3 AND SWAP1 POP SWAP2 SWAP1 POP JUMP JUMPDEST PUSH1 0x0 PUSH1 0xFF DUP3 AND SWAP1 POP SWAP2 SWAP1 POP JUMP JUMPDEST PUSH1 0x0 PUSH2 0xF9A DUP3 PUSH2 0xFA1 JUMP JUMPDEST SWAP1 POP SWAP2 SWAP1 POP JUMP JUMPDEST PUSH1 0x0 PUSH20 0xFFFFFFFFFFFFFFFFFFFFFFFFFFFFFFFFFFFFFFFF DUP3 AND SWAP1 POP SWAP2 SWAP1 POP JUMP JUMPDEST PUSH1 0x0 DUP2 SWAP1 POP SWAP2 SWAP1 POP JUMP JUMPDEST PUSH1 0x0 PUSH1 0xFF DUP3 AND SWAP1 POP SWAP2 SWAP1 POP JUMP JUMPDEST DUP3 DUP2 DUP4 CALLDATACOPY PUSH1 0x0 DUP4 DUP4 ADD MSTORE POP POP POP JUMP JUMPDEST PUSH1 0x0 JUMPDEST DUP4 DUP2 LT ISZERO PUSH2 0x1005 JUMPI DUP1 DUP3 ADD MLOAD DUP2 DUP5 ADD MSTORE PUSH1 0x20 DUP2 ADD SWAP1 POP PUSH2 0xFEA JUMP JUMPDEST DUP4 DUP2 GT ISZERO PUSH2 0x1014 JUMPI PUSH1 0x0 DUP5 DUP5 ADD MSTORE JUMPDEST POP POP POP POP JUMP JUMPDEST PUSH1 0x0 PUSH1 0x2 DUP3 DIV SWAP1 POP PUSH1 0x1 DUP3 AND DUP1 PUSH2 0x1032 JUMPI PUSH1 0x7F DUP3 AND SWAP2 POP JUMPDEST PUSH1 0x20 DUP3 LT DUP2 EQ ISZERO PUSH2 0x1046 JUMPI PUSH2 0x1045 PUSH2 0x1143 JUMP JUMPDEST JUMPDEST POP SWAP2 SWAP1 POP JUMP JUMPDEST PUSH1 0x0 PUSH2 0x105F PUSH2 0x105A DUP4 PUSH2 0x11B2 JUMP JUMPDEST PUSH2 0xF62 JUMP JUMPDEST SWAP1 POP SWAP2 SWAP1 POP JUMP JUMPDEST PUSH1 0x0 PUSH2 0x1079 PUSH2 0x1074 DUP4 PUSH2 0x11B2 JUMP JUMPDEST PUSH2 0xF82 JUMP JUMPDEST SWAP1 POP SWAP2 SWAP1 POP JUMP JUMPDEST PUSH1 0x0 PUSH2 0x1093 PUSH2 0x108E DUP4 PUSH2 0x11BF JUMP JUMPDEST PUSH2 0xF82 JUMP JUMPDEST SWAP1 POP SWAP2 SWAP1 POP JUMP JUMPDEST PUSH2 0x10A3 DUP3 PUSH2 0x11A1 JUMP JUMPDEST DUP2 ADD DUP2 DUP2 LT PUSH8 0xFFFFFFFFFFFFFFFF DUP3 GT OR ISZERO PUSH2 0x10C2 JUMPI PUSH2 0x10C1 PUSH2 0x1172 JUMP JUMPDEST JUMPDEST DUP1 PUSH1 0x40 MSTORE POP POP POP JUMP JUMPDEST PUSH1 0x0 PUSH2 0x10D6 DUP3 PUSH2 0xFC1 JUMP JUMPDEST SWAP2 POP PUSH32 0xFFFFFFFFFFFFFFFFFFFFFFFFFFFFFFFFFFFFFFFFFFFFFFFFFFFFFFFFFFFFFFFF DUP3 EQ ISZERO PUSH2 0x1109 JUMPI PUSH2 0x1108 PUSH2 0x1114 JUMP JUMPDEST JUMPDEST PUSH1 0x1 DUP3 ADD SWAP1 POP SWAP2 SWAP1 POP JUMP JUMPDEST PUSH32 0x4E487B7100000000000000000000000000000000000000000000000000000000 PUSH1 0x0 MSTORE PUSH1 0x11 PUSH1 0x4 MSTORE PUSH1 0x24 PUSH1 0x0 REVERT JUMPDEST PUSH32 0x4E487B7100000000000000000000000000000000000000000000000000000000 PUSH1 0x0 MSTORE PUSH1 0x22 PUSH1 0x4 MSTORE PUSH1 0x24 PUSH1 0x0 REVERT JUMPDEST PUSH32 0x4E487B7100000000000000000000000000000000000000000000000000000000 PUSH1 0x0 MSTORE PUSH1 0x41 PUSH1 0x4 MSTORE PUSH1 0x24 PUSH1 0x0 REVERT JUMPDEST PUSH1 0x0 PUSH1 0x1F NOT PUSH1 0x1F DUP4 ADD AND SWAP1 POP SWAP2 SWAP1 POP JUMP JUMPDEST PUSH1 0x0 DUP2 PUSH1 0x0 SHR SWAP1 POP SWAP2 SWAP1 POP JUMP JUMPDEST PUSH1 0x0 DUP2 PUSH1 0x8 SHR SWAP1 POP SWAP2 SWAP1 POP JUMP JUMPDEST PUSH2 0x11D5 DUP2 PUSH2 0xF8F JUMP JUMPDEST DUP2 EQ PUSH2 0x11E0 JUMPI PUSH1 0x0 DUP1 REVERT JUMPDEST POP JUMP JUMPDEST PUSH2 0x11EC DUP2 PUSH2 0xFC1 JUMP JUMPDEST DUP2 EQ PUSH2 0x11F7 JUMPI PUSH1 0x0 DUP1 REVERT JUMPDEST POP JUMP JUMPDEST PUSH2 0x1203 DUP2 PUSH2 0xFCB JUMP JUMPDEST DUP2 EQ PUSH2 0x120E JUMPI PUSH1 0x0 DUP1 REVERT JUMPDEST POP JUMP INVALID LOG2 PUSH5 0x6970667358 0x22 SLT KECCAK256 DUP15 0xD9 0xD4 SELFBALANCE 0xD9 SWAP9 PUSH9 0xD74ED3C458398C43A5 0xC2 0xD6 0xBA CALLDATALOAD LOG3 0xF ADDRESS SSTORE 0xA7 REVERT 0xBB 0xCC CALLDATACOPY SWAP16 0x27 0xFC PUSH5 0x736F6C6343 STOP ADDMOD MUL STOP CALLER "},"methodIdentifiers":{"candidate(uint256)":"1de43c4b","getHost()":"20bc4425","getUsers()":"00ce8e3e","logUser()":"8b2abe87","setCandidates(address[],string[],uint8[])":"57c6245b","setID(uint8)":"f873a131"}}}}}