{
  "_format": "hh-sol-artifact-1",
  "contractName": "Candidate",
  "sourceName": "contracts/DVS_v2.sol",
  "abi": [
    {
      "anonymous": false,
      "inputs": [
        {
          "indexed": true,
          "internalType": "address",
          "name": "host_",
          "type": "address"
        }
      ],
      "name": "constructor_",
      "type": "event"
    },
    {
      "anonymous": false,
      "inputs": [
        {
          "indexed": true,
          "internalType": "uint256",
          "name": "resetCount",
          "type": "uint256"
        }
      ],
      "name": "resetElection_",
      "type": "event"
    },
    {
      "anonymous": false,
      "inputs": [
        {
          "indexed": true,
          "internalType": "uint256",
          "name": "endTime_",
          "type": "uint256"
        }
      ],
      "name": "setElection_time_",
      "type": "event"
    },
    {
      "inputs": [
        {
          "internalType": "string",
          "name": "name_",
          "type": "string"
        },
        {
          "internalType": "uint256",
          "name": "id_",
          "type": "uint256"
        }
      ],
      "name": "addCandidate",
      "outputs": [],
      "stateMutability": "nonpayable",
      "type": "function"
    },
    {
      "inputs": [],
      "name": "getCandidates",
      "outputs": [
        {
          "components": [
            {
              "internalType": "string",
              "name": "name",
              "type": "string"
            },
            {
              "internalType": "uint256",
              "name": "id",
              "type": "uint256"
            },
            {
              "internalType": "uint256",
              "name": "voteCount",
              "type": "uint256"
            }
          ],
          "internalType": "struct Election.Candidate_[]",
          "name": "",
          "type": "tuple[]"
        }
      ],
      "stateMutability": "view",
      "type": "function"
    },
    {
      "inputs": [
        {
          "internalType": "uint256",
          "name": "id",
          "type": "uint256"
        }
      ],
      "name": "getCandidates_votecount",
      "outputs": [
        {
          "internalType": "uint256",
          "name": "",
          "type": "uint256"
        }
      ],
      "stateMutability": "view",
      "type": "function"
    },
    {
      "inputs": [],
      "name": "getElection_status",
      "outputs": [
        {
          "internalType": "bool",
          "name": "",
          "type": "bool"
        }
      ],
      "stateMutability": "view",
      "type": "function"
    },
    {
      "inputs": [],
      "name": "getElection_time",
      "outputs": [
        {
          "internalType": "uint256",
          "name": "",
          "type": "uint256"
        }
      ],
      "stateMutability": "view",
      "type": "function"
    },
    {
      "inputs": [],
      "name": "getResetElection_count",
      "outputs": [
        {
          "internalType": "uint256",
          "name": "",
          "type": "uint256"
        }
      ],
      "stateMutability": "view",
      "type": "function"
    },
    {
      "inputs": [
        {
          "internalType": "uint256",
          "name": "id_",
          "type": "uint256"
        }
      ],
      "name": "removeCandidate",
      "outputs": [],
      "stateMutability": "nonpayable",
      "type": "function"
    },
    {
      "inputs": [],
      "name": "resetElection",
      "outputs": [],
      "stateMutability": "nonpayable",
      "type": "function"
    },
    {
      "inputs": [
        {
          "internalType": "uint256",
          "name": "weeks_",
          "type": "uint256"
        },
        {
          "internalType": "uint256",
          "name": "days_",
          "type": "uint256"
        },
        {
          "internalType": "uint256",
          "name": "hours_",
          "type": "uint256"
        },
        {
          "internalType": "uint256",
          "name": "minutes_",
          "type": "uint256"
        },
        {
          "internalType": "uint256",
          "name": "seconds_",
          "type": "uint256"
        }
      ],
      "name": "startElection",
      "outputs": [],
      "stateMutability": "nonpayable",
      "type": "function"
    }
  ],
  "bytecode": "0x6080604052600060015534801561001557600080fd5b50336000806101000a81548173ffffffffffffffffffffffffffffffffffffffff021916908373ffffffffffffffffffffffffffffffffffffffff16021790555060008054906101000a900473ffffffffffffffffffffffffffffffffffffffff1673ffffffffffffffffffffffffffffffffffffffff167f0b41a216fea24e5c7f23614889e0b25abb2e08d2eb1b497dec255157ff953d0a60405160405180910390a2611a53806100c86000396000f3fe608060405234801561001057600080fd5b50600436106100935760003560e01c80637af87410116100665780637af874101461010e578063966914241461012a578063e23cec7b14610148578063e8f3052314610164578063f84028d51461016e57610093565b806306a49fce1461009857806309e9d7e2146100b65780632ed986a7146100d25780634f84d8d8146100f0575b600080fd5b6100a061019e565b6040516100ad9190611366565b60405180910390f35b6100d060048036038101906100cb919061106f565b6102a3565b005b6100da6105c5565b6040516100e791906114a3565b60405180910390f35b6100f861061e565b60405161010591906114a3565b60405180910390f35b61012860048036038101906101239190611098565b610628565b005b6101326107a7565b60405161013f9190611388565b60405180910390f35b610162600480360381019061015d919061101b565b6107b3565b005b61016c6109b9565b005b6101886004803603810190610183919061106f565b610c90565b60405161019591906114a3565b60405180910390f35b60606002805480602002602001604051908101604052809291908181526020016000905b8282101561029a57838290600052602060002090600302016040518060600160405290816000820180546101f5906116b6565b80601f0160208091040260200160405190810160405280929190818152602001828054610221906116b6565b801561026e5780601f106102435761010080835404028352916020019161026e565b820191906000526020600020905b81548152906001019060200180831161025157829003601f168201915b5050505050815260200160018201548152602001600282015481525050815260200190600101906101c2565b50505050905090565b60008054906101000a900473ffffffffffffffffffffffffffffffffffffffff1673ffffffffffffffffffffffffffffffffffffffff163373ffffffffffffffffffffffffffffffffffffffff1614610331576040517f08c379a0000000000000000000000000000000000000000000000000000000008152600401610328906113c3565b60405180910390fd5b6003600082815260200190815260200160002060009054906101000a900460ff16610391576040517f08c379a000000000000000000000000000000000000000000000000000000000815260040161038890611463565b60405180910390fd5b60095442116103d5576040517f08c379a00000000000000000000000000000000000000000000000000000000081526004016103cc906113e3565b60405180910390fd5b60005b6002805490508110156105c1578160028281548110610420577f4e487b7100000000000000000000000000000000000000000000000000000000600052603260045260246000fd5b90600052602060002090600302016001015414156105ae5760006003600084815260200190815260200160002060006101000a81548160ff02191690831515021790555060026001600280549050610478919061162a565b815481106104af577f4e487b7100000000000000000000000000000000000000000000000000000000600052603260045260246000fd5b9060005260206000209060030201600282815481106104f7577f4e487b7100000000000000000000000000000000000000000000000000000000600052603260045260246000fd5b90600052602060002090600302016000820181600001908054610519906116b6565b610524929190610db2565b5060018201548160010155600282015481600201559050506002805480610574577f4e487b7100000000000000000000000000000000000000000000000000000000600052603160045260246000fd5b6001900381819060005260206000209060030201600080820160006105999190610e3f565b60018201600090556002820160009055505090555b80806105b990611719565b9150506103d8565b5050565b6000600954421061060b576040517f08c379a000000000000000000000000000000000000000000000000000000000815260040161060290611483565b60405180910390fd5b42600954610619919061162a565b905090565b6000600154905090565b60008054906101000a900473ffffffffffffffffffffffffffffffffffffffff1673ffffffffffffffffffffffffffffffffffffffff163373ffffffffffffffffffffffffffffffffffffffff16146106b6576040517f08c379a00000000000000000000000000000000000000000000000000000000081526004016106ad906113c3565b60405180910390fd5b6002808054905010156106fe576040517f08c379a00000000000000000000000000000000000000000000000000000000081526004016106f590611403565b60405180910390fd5b80603c8361070c91906115d0565b610e108561071a91906115d0565b620151808761072991906115d0565b62093a808961073891906115d0565b42610743919061157a565b61074d919061157a565b610757919061157a565b610761919061157a565b61076b919061157a565b6009819055506009547fd0620cedbb1e03e8a5c59f460040ef78fd59fb3abf2fce0a3f43a2adf47be5e960405160405180910390a25050505050565b60006009544210905090565b60008054906101000a900473ffffffffffffffffffffffffffffffffffffffff1673ffffffffffffffffffffffffffffffffffffffff163373ffffffffffffffffffffffffffffffffffffffff1614610841576040517f08c379a0000000000000000000000000000000000000000000000000000000008152600401610838906113c3565b60405180910390fd5b6003600082815260200190815260200160002060009054906101000a900460ff16156108a2576040517f08c379a000000000000000000000000000000000000000000000000000000000815260040161089990611423565b60405180910390fd5b60095442116108e6576040517f08c379a00000000000000000000000000000000000000000000000000000000081526004016108dd906113a3565b60405180910390fd5b60026040518060600160405280848152602001838152602001600081525090806001815401808255809150506001900390600052602060002090600302016000909190919091506000820151816000019080519060200190610949929190610e7f565b506020820151816001015560408201518160020155505060016003600083815260200190815260200160002060006101000a81548160ff02191690831515021790555060048190806001815401808255809150506001900390600052602060002001600090919091909150555050565b60008054906101000a900473ffffffffffffffffffffffffffffffffffffffff1673ffffffffffffffffffffffffffffffffffffffff163373ffffffffffffffffffffffffffffffffffffffff1614610a47576040517f08c379a0000000000000000000000000000000000000000000000000000000008152600401610a3e906113c3565b60405180910390fd5b6009544210610a8b576040517f08c379a0000000000000000000000000000000000000000000000000000000008152600401610a8290611483565b60405180910390fd5b60005b600280549050811015610b1e5760006003600060048481548110610adb577f4e487b7100000000000000000000000000000000000000000000000000000000600052603260045260246000fd5b9060005260206000200154815260200190815260200160002060006101000a81548160ff0219169083151502179055508080610b1690611719565b915050610a8e565b5060005b600580549050811015610c225760006006600060088481548110610b6f577f4e487b7100000000000000000000000000000000000000000000000000000000600052603260045260246000fd5b9060005260206000200154815260200190815260200160002060006101000a81548160ff02191690831515021790555060006007600060088481548110610bdf577f4e487b7100000000000000000000000000000000000000000000000000000000600052603260045260246000fd5b9060005260206000200154815260200190815260200160002060006101000a81548160ff0219169083151502179055508080610c1a90611719565b915050610b22565b5060026000610c319190610f05565b60056000610c3f9190610f29565b600060098190555060016000815480929190610c5a90611719565b91905055506001547f255af500d3b382c6aefa7fcb5720ee98710a491c3dd03cd10dc45ec66aa92c4d60405160405180910390a2565b6000806000905060005b600280549050811015610d16578360028281548110610ce2577f4e487b7100000000000000000000000000000000000000000000000000000000600052603260045260246000fd5b9060005260206000209060030201600101541415610d035760019150610d16565b8080610d0e90611719565b915050610c9a565b6001151582151514610d5d576040517f08c379a0000000000000000000000000000000000000000000000000000000008152600401610d5490611443565b60405180910390fd5b60028181548110610d97577f4e487b7100000000000000000000000000000000000000000000000000000000600052603260045260246000fd5b90600052602060002090600302016002015492505050919050565b828054610dbe906116b6565b90600052602060002090601f016020900481019282610de05760008555610e2e565b82601f10610df15780548555610e2e565b82800160010185558215610e2e57600052602060002091601f016020900482015b82811115610e2d578254825591600101919060010190610e12565b5b509050610e3b9190610f4a565b5090565b508054610e4b906116b6565b6000825580601f10610e5d5750610e7c565b601f016020900490600052602060002090810190610e7b9190610f4a565b5b50565b828054610e8b906116b6565b90600052602060002090601f016020900481019282610ead5760008555610ef4565b82601f10610ec657805160ff1916838001178555610ef4565b82800160010185558215610ef4579182015b82811115610ef3578251825591602001919060010190610ed8565b5b509050610f019190610f4a565b5090565b5080546000825560030290600052602060002090810190610f269190610f67565b50565b5080546000825590600052602060002090810190610f479190610f4a565b50565b5b80821115610f63576000816000905550600101610f4b565b5090565b5b80821115610f9a5760008082016000610f819190610e3f565b6001820160009055600282016000905550600301610f68565b5090565b6000610fb1610fac846114e3565b6114be565b905082815260208101848484011115610fc957600080fd5b610fd4848285611674565b509392505050565b600082601f830112610fed57600080fd5b8135610ffd848260208601610f9e565b91505092915050565b60008135905061101581611a06565b92915050565b6000806040838503121561102e57600080fd5b600083013567ffffffffffffffff81111561104857600080fd5b61105485828601610fdc565b925050602061106585828601611006565b9150509250929050565b60006020828403121561108157600080fd5b600061108f84828501611006565b91505092915050565b600080600080600060a086880312156110b057600080fd5b60006110be88828901611006565b95505060206110cf88828901611006565b94505060406110e088828901611006565b93505060606110f188828901611006565b925050608061110288828901611006565b9150509295509295909350565b600061111b83836112f8565b905092915050565b600061112e82611524565b6111388185611547565b93508360208202850161114a85611514565b8060005b858110156111865784840389528151611167858261110f565b94506111728361153a565b925060208a0199505060018101905061114e565b50829750879550505050505092915050565b6111a18161165e565b82525050565b60006111b28261152f565b6111bc8185611558565b93506111cc818560208601611683565b6111d5816117ef565b840191505092915050565b60006111ed603983611569565b91506111f882611800565b604082019050919050565b6000611210602283611569565b915061121b8261184f565b604082019050919050565b6000611233603b83611569565b915061123e8261189e565b604082019050919050565b6000611256604183611569565b9150611261826118ed565b606082019050919050565b6000611279601283611569565b915061128482611962565b602082019050919050565b600061129c601583611569565b91506112a78261198b565b602082019050919050565b60006112bf601783611569565b91506112ca826119b4565b602082019050919050565b60006112e2601d83611569565b91506112ed826119dd565b602082019050919050565b6000606083016000830151848203600086015261131582826111a7565b915050602083015161132a6020860182611348565b50604083015161133d6040860182611348565b508091505092915050565b6113518161166a565b82525050565b6113608161166a565b82525050565b600060208201905081810360008301526113808184611123565b905092915050565b600060208201905061139d6000830184611198565b92915050565b600060208201905081810360008301526113bc816111e0565b9050919050565b600060208201905081810360008301526113dc81611203565b9050919050565b600060208201905081810360008301526113fc81611226565b9050919050565b6000602082019050818103600083015261141c81611249565b9050919050565b6000602082019050818103600083015261143c8161126c565b9050919050565b6000602082019050818103600083015261145c8161128f565b9050919050565b6000602082019050818103600083015261147c816112b2565b9050919050565b6000602082019050818103600083015261149c816112d5565b9050919050565b60006020820190506114b86000830184611357565b92915050565b60006114c86114d9565b90506114d482826116e8565b919050565b6000604051905090565b600067ffffffffffffffff8211156114fe576114fd6117c0565b5b611507826117ef565b9050602081019050919050565b6000819050602082019050919050565b600081519050919050565b600081519050919050565b6000602082019050919050565b600082825260208201905092915050565b600082825260208201905092915050565b600082825260208201905092915050565b60006115858261166a565b91506115908361166a565b9250827fffffffffffffffffffffffffffffffffffffffffffffffffffffffffffffffff038211156115c5576115c4611762565b5b828201905092915050565b60006115db8261166a565b91506115e68361166a565b9250817fffffffffffffffffffffffffffffffffffffffffffffffffffffffffffffffff048311821515161561161f5761161e611762565b5b828202905092915050565b60006116358261166a565b91506116408361166a565b92508282101561165357611652611762565b5b828203905092915050565b60008115159050919050565b6000819050919050565b82818337600083830152505050565b60005b838110156116a1578082015181840152602081019050611686565b838111156116b0576000848401525b50505050565b600060028204905060018216806116ce57607f821691505b602082108114156116e2576116e1611791565b5b50919050565b6116f1826117ef565b810181811067ffffffffffffffff821117156117105761170f6117c0565b5b80604052505050565b60006117248261166a565b91507fffffffffffffffffffffffffffffffffffffffffffffffffffffffffffffffff82141561175757611756611762565b5b600182019050919050565b7f4e487b7100000000000000000000000000000000000000000000000000000000600052601160045260246000fd5b7f4e487b7100000000000000000000000000000000000000000000000000000000600052602260045260246000fd5b7f4e487b7100000000000000000000000000000000000000000000000000000000600052604160045260246000fd5b6000601f19601f8301169050919050565b7f416464696e672063616e6469646174652069732070726f68696269746564207760008201527f68656e20656c656374696f6e2068617320737461727465642e00000000000000602082015250565b7f4f6e6c7920686f73742063616e2061636365737320746f20746869732061726560008201527f6121000000000000000000000000000000000000000000000000000000000000602082015250565b7f52656d6f76696e672063616e6469646174652069732070726f6869626974656460008201527f207768656e20656c656374696f6e2068617320737461727465642e0000000000602082015250565b7f4174206c656173742032206f72206d6f72652043616e6469646174657320617260008201527f6520726571756972656420746f2073746172742074686520456c656374696f6e60208201527f2100000000000000000000000000000000000000000000000000000000000000604082015250565b7f43616e6469646174652045786973746564210000000000000000000000000000600082015250565b7f496e76616c69642043616e646964617465204944210000000000000000000000600082015250565b7f43616e646964617465204944206e6f7420666f756e6421000000000000000000600082015250565b7f456c656374696f6e20686173206e6f7420737461727465642079657421000000600082015250565b611a0f8161166a565b8114611a1a57600080fd5b5056fea2646970667358221220fd17a7b113f48c5c36c1c514bd77534f0caa5bd059d22e54e558638c485662d264736f6c63430008020033",
  "linkReferences": {},
  "deployedLinkReferences": {}
}