{
  "_format": "hh-sol-artifact-1",
  "contractName": "Election",
  "sourceName": "contracts/DVS_v2.sol",
  "abi": [
    {
      "inputs": [],
      "stateMutability": "nonpayable",
      "type": "constructor"
    },
    {
      "anonymous": false,
      "inputs": [
        {
          "indexed": true,
          "internalType": "address",
          "name": "host_",
          "type": "address"
        }
      ],
      "name": "constructor_",
      "type": "event"
    },
    {
      "anonymous": false,
      "inputs": [
        {
          "indexed": true,
          "internalType": "uint256",
          "name": "resetCount",
          "type": "uint256"
        }
      ],
      "name": "resetElection_",
      "type": "event"
    },
    {
      "anonymous": false,
      "inputs": [
        {
          "indexed": true,
          "internalType": "uint256",
          "name": "endTime_",
          "type": "uint256"
        }
      ],
      "name": "setElection_time_",
      "type": "event"
    },
    {
      "inputs": [],
      "name": "getElection_status",
      "outputs": [
        {
          "internalType": "bool",
          "name": "",
          "type": "bool"
        }
      ],
      "stateMutability": "view",
      "type": "function"
    },
    {
      "inputs": [],
      "name": "getElection_time",
      "outputs": [
        {
          "internalType": "uint256",
          "name": "",
          "type": "uint256"
        }
      ],
      "stateMutability": "view",
      "type": "function"
    },
    {
      "inputs": [],
      "name": "getResetElection_count",
      "outputs": [
        {
          "internalType": "uint256",
          "name": "",
          "type": "uint256"
        }
      ],
      "stateMutability": "view",
      "type": "function"
    },
    {
      "inputs": [],
      "name": "resetElection",
      "outputs": [],
      "stateMutability": "nonpayable",
      "type": "function"
    },
    {
      "inputs": [
        {
          "internalType": "uint256",
          "name": "weeks_",
          "type": "uint256"
        },
        {
          "internalType": "uint256",
          "name": "days_",
          "type": "uint256"
        },
        {
          "internalType": "uint256",
          "name": "hours_",
          "type": "uint256"
        },
        {
          "internalType": "uint256",
          "name": "minutes_",
          "type": "uint256"
        },
        {
          "internalType": "uint256",
          "name": "seconds_",
          "type": "uint256"
        }
      ],
      "name": "startElection",
      "outputs": [],
      "stateMutability": "nonpayable",
      "type": "function"
    }
  ],
  "bytecode": "0x6080604052600060015534801561001557600080fd5b50336000806101000a81548173ffffffffffffffffffffffffffffffffffffffff021916908373ffffffffffffffffffffffffffffffffffffffff16021790555060008054906101000a900473ffffffffffffffffffffffffffffffffffffffff1673ffffffffffffffffffffffffffffffffffffffff167f0b41a216fea24e5c7f23614889e0b25abb2e08d2eb1b497dec255157ff953d0a60405160405180910390a2610b41806100c86000396000f3fe608060405234801561001057600080fd5b50600436106100575760003560e01c80632ed986a71461005c5780634f84d8d81461007a5780637af874101461009857806396691424146100b4578063e8f30523146100d2575b600080fd5b6100646100dc565b6040516100719190610808565b60405180910390f35b610082610135565b60405161008f9190610808565b60405180910390f35b6100b260048036038101906100ad919061068f565b61013f565b005b6100bc6102be565b6040516100c9919061078d565b60405180910390f35b6100da6102ca565b005b60006009544210610122576040517f08c379a0000000000000000000000000000000000000000000000000000000008152600401610119906107e8565b60405180910390fd5b4260095461013091906108e4565b905090565b6000600154905090565b60008054906101000a900473ffffffffffffffffffffffffffffffffffffffff1673ffffffffffffffffffffffffffffffffffffffff163373ffffffffffffffffffffffffffffffffffffffff16146101cd576040517f08c379a00000000000000000000000000000000000000000000000000000000081526004016101c4906107a8565b60405180910390fd5b600280805490501015610215576040517f08c379a000000000000000000000000000000000000000000000000000000000815260040161020c906107c8565b60405180910390fd5b80603c83610223919061088a565b610e1085610231919061088a565b6201518087610240919061088a565b62093a808961024f919061088a565b4261025a9190610834565b6102649190610834565b61026e9190610834565b6102789190610834565b6102829190610834565b6009819055506009547fd0620cedbb1e03e8a5c59f460040ef78fd59fb3abf2fce0a3f43a2adf47be5e960405160405180910390a25050505050565b60006009544210905090565b60008054906101000a900473ffffffffffffffffffffffffffffffffffffffff1673ffffffffffffffffffffffffffffffffffffffff163373ffffffffffffffffffffffffffffffffffffffff1614610358576040517f08c379a000000000000000000000000000000000000000000000000000000000815260040161034f906107a8565b60405180910390fd5b600954421061039c576040517f08c379a0000000000000000000000000000000000000000000000000000000008152600401610393906107e8565b60405180910390fd5b60005b60028054905081101561042f57600060036000600484815481106103ec577f4e487b7100000000000000000000000000000000000000000000000000000000600052603260045260246000fd5b9060005260206000200154815260200190815260200160002060006101000a81548160ff021916908315150217905550808061042790610960565b91505061039f565b5060005b6005805490508110156105335760006006600060088481548110610480577f4e487b7100000000000000000000000000000000000000000000000000000000600052603260045260246000fd5b9060005260206000200154815260200190815260200160002060006101000a81548160ff021916908315150217905550600060076000600884815481106104f0577f4e487b7100000000000000000000000000000000000000000000000000000000600052603260045260246000fd5b9060005260206000200154815260200190815260200160002060006101000a81548160ff021916908315150217905550808061052b90610960565b915050610433565b506002600061054291906105a1565b6005600061055091906105c5565b60006009819055506001600081548092919061056b90610960565b91905055506001547f255af500d3b382c6aefa7fcb5720ee98710a491c3dd03cd10dc45ec66aa92c4d60405160405180910390a2565b50805460008255600302906000526020600020908101906105c291906105e6565b50565b50805460008255906000526020600020908101906105e3919061061d565b50565b5b808211156106195760008082016000610600919061063a565b60018201600090556002820160009055506003016105e7565b5090565b5b8082111561063657600081600090555060010161061e565b5090565b5080546106469061092e565b6000825580601f106106585750610677565b601f016020900490600052602060002090810190610676919061061d565b5b50565b60008135905061068981610af4565b92915050565b600080600080600060a086880312156106a757600080fd5b60006106b58882890161067a565b95505060206106c68882890161067a565b94505060406106d78882890161067a565b93505060606106e88882890161067a565b92505060806106f98882890161067a565b9150509295509295909350565b61070f81610918565b82525050565b6000610722602283610823565b915061072d82610a07565b604082019050919050565b6000610745604183610823565b915061075082610a56565b606082019050919050565b6000610768601d83610823565b915061077382610acb565b602082019050919050565b61078781610924565b82525050565b60006020820190506107a26000830184610706565b92915050565b600060208201905081810360008301526107c181610715565b9050919050565b600060208201905081810360008301526107e181610738565b9050919050565b600060208201905081810360008301526108018161075b565b9050919050565b600060208201905061081d600083018461077e565b92915050565b600082825260208201905092915050565b600061083f82610924565b915061084a83610924565b9250827fffffffffffffffffffffffffffffffffffffffffffffffffffffffffffffffff0382111561087f5761087e6109a9565b5b828201905092915050565b600061089582610924565b91506108a083610924565b9250817fffffffffffffffffffffffffffffffffffffffffffffffffffffffffffffffff04831182151516156108d9576108d86109a9565b5b828202905092915050565b60006108ef82610924565b91506108fa83610924565b92508282101561090d5761090c6109a9565b5b828203905092915050565b60008115159050919050565b6000819050919050565b6000600282049050600182168061094657607f821691505b6020821081141561095a576109596109d8565b5b50919050565b600061096b82610924565b91507fffffffffffffffffffffffffffffffffffffffffffffffffffffffffffffffff82141561099e5761099d6109a9565b5b600182019050919050565b7f4e487b7100000000000000000000000000000000000000000000000000000000600052601160045260246000fd5b7f4e487b7100000000000000000000000000000000000000000000000000000000600052602260045260246000fd5b7f4f6e6c7920686f73742063616e2061636365737320746f20746869732061726560008201527f6121000000000000000000000000000000000000000000000000000000000000602082015250565b7f4174206c656173742032206f72206d6f72652043616e6469646174657320617260008201527f6520726571756972656420746f2073746172742074686520456c656374696f6e60208201527f2100000000000000000000000000000000000000000000000000000000000000604082015250565b7f456c656374696f6e20686173206e6f7420737461727465642079657421000000600082015250565b610afd81610924565b8114610b0857600080fd5b5056fea2646970667358221220da586e474820716f6da1c87f8fd7a340a9d2c6421be1c413948fa9f017cf696a64736f6c63430008020033",
  "linkReferences": {},
  "deployedLinkReferences": {}
}