{
  "_format": "hh-sol-artifact-1",
  "contractName": "Voter",
  "sourceName": "contracts/DVS_v2.sol",
  "abi": [
    {
      "anonymous": false,
      "inputs": [
        {
          "indexed": true,
          "internalType": "address",
          "name": "host_",
          "type": "address"
        }
      ],
      "name": "constructor_",
      "type": "event"
    },
    {
      "anonymous": false,
      "inputs": [
        {
          "indexed": true,
          "internalType": "uint256",
          "name": "resetCount",
          "type": "uint256"
        }
      ],
      "name": "resetElection_",
      "type": "event"
    },
    {
      "anonymous": false,
      "inputs": [
        {
          "indexed": true,
          "internalType": "uint256",
          "name": "endTime_",
          "type": "uint256"
        }
      ],
      "name": "setElection_time_",
      "type": "event"
    },
    {
      "anonymous": false,
      "inputs": [
        {
          "indexed": true,
          "internalType": "string",
          "name": "name",
          "type": "string"
        },
        {
          "indexed": true,
          "internalType": "uint256",
          "name": "voteCount",
          "type": "uint256"
        }
      ],
      "name": "vote_",
      "type": "event"
    },
    {
      "inputs": [
        {
          "internalType": "string",
          "name": "name_",
          "type": "string"
        },
        {
          "internalType": "uint256",
          "name": "id_",
          "type": "uint256"
        }
      ],
      "name": "addCandidate",
      "outputs": [],
      "stateMutability": "nonpayable",
      "type": "function"
    },
    {
      "inputs": [],
      "name": "clearTAC",
      "outputs": [],
      "stateMutability": "nonpayable",
      "type": "function"
    },
    {
      "inputs": [],
      "name": "getCandidates",
      "outputs": [
        {
          "components": [
            {
              "internalType": "string",
              "name": "name",
              "type": "string"
            },
            {
              "internalType": "uint256",
              "name": "id",
              "type": "uint256"
            },
            {
              "internalType": "uint256",
              "name": "voteCount",
              "type": "uint256"
            }
          ],
          "internalType": "struct Election.Candidate_[]",
          "name": "",
          "type": "tuple[]"
        }
      ],
      "stateMutability": "view",
      "type": "function"
    },
    {
      "inputs": [
        {
          "internalType": "uint256",
          "name": "id",
          "type": "uint256"
        }
      ],
      "name": "getCandidates_votecount",
      "outputs": [
        {
          "internalType": "uint256",
          "name": "",
          "type": "uint256"
        }
      ],
      "stateMutability": "view",
      "type": "function"
    },
    {
      "inputs": [],
      "name": "getElection_status",
      "outputs": [
        {
          "internalType": "bool",
          "name": "",
          "type": "bool"
        }
      ],
      "stateMutability": "view",
      "type": "function"
    },
    {
      "inputs": [],
      "name": "getElection_time",
      "outputs": [
        {
          "internalType": "uint256",
          "name": "",
          "type": "uint256"
        }
      ],
      "stateMutability": "view",
      "type": "function"
    },
    {
      "inputs": [],
      "name": "getResetElection_count",
      "outputs": [
        {
          "internalType": "uint256",
          "name": "",
          "type": "uint256"
        }
      ],
      "stateMutability": "view",
      "type": "function"
    },
    {
      "inputs": [],
      "name": "getTAC",
      "outputs": [
        {
          "internalType": "uint256[]",
          "name": "",
          "type": "uint256[]"
        }
      ],
      "stateMutability": "view",
      "type": "function"
    },
    {
      "inputs": [
        {
          "internalType": "uint256",
          "name": "id_",
          "type": "uint256"
        }
      ],
      "name": "removeCandidate",
      "outputs": [],
      "stateMutability": "nonpayable",
      "type": "function"
    },
    {
      "inputs": [
        {
          "internalType": "uint256",
          "name": "TAC_",
          "type": "uint256"
        }
      ],
      "name": "removeTAC",
      "outputs": [],
      "stateMutability": "nonpayable",
      "type": "function"
    },
    {
      "inputs": [],
      "name": "resetElection",
      "outputs": [],
      "stateMutability": "nonpayable",
      "type": "function"
    },
    {
      "inputs": [
        {
          "internalType": "uint256[]",
          "name": "TAC_",
          "type": "uint256[]"
        }
      ],
      "name": "setTAC",
      "outputs": [],
      "stateMutability": "nonpayable",
      "type": "function"
    },
    {
      "inputs": [
        {
          "internalType": "uint256",
          "name": "weeks_",
          "type": "uint256"
        },
        {
          "internalType": "uint256",
          "name": "days_",
          "type": "uint256"
        },
        {
          "internalType": "uint256",
          "name": "hours_",
          "type": "uint256"
        },
        {
          "internalType": "uint256",
          "name": "minutes_",
          "type": "uint256"
        },
        {
          "internalType": "uint256",
          "name": "seconds_",
          "type": "uint256"
        }
      ],
      "name": "startElection",
      "outputs": [],
      "stateMutability": "nonpayable",
      "type": "function"
    },
    {
      "inputs": [
        {
          "internalType": "uint256",
          "name": "TAC_",
          "type": "uint256"
        }
      ],
      "name": "updateTAC",
      "outputs": [],
      "stateMutability": "nonpayable",
      "type": "function"
    },
    {
      "inputs": [],
      "name": "verifyTAC",
      "outputs": [
        {
          "internalType": "bool",
          "name": "",
          "type": "bool"
        }
      ],
      "stateMutability": "view",
      "type": "function"
    },
    {
      "inputs": [
        {
          "internalType": "uint8",
          "name": "index",
          "type": "uint8"
        }
      ],
      "name": "vote",
      "outputs": [],
      "stateMutability": "nonpayable",
      "type": "function"
    }
  ],
  "bytecode": "0x6080604052600060015534801561001557600080fd5b50336000806101000a81548173ffffffffffffffffffffffffffffffffffffffff021916908373ffffffffffffffffffffffffffffffffffffffff16021790555060008054906101000a900473ffffffffffffffffffffffffffffffffffffffff1673ffffffffffffffffffffffffffffffffffffffff167f0b41a216fea24e5c7f23614889e0b25abb2e08d2eb1b497dec255157ff953d0a60405160405180910390a2612a83806100c86000396000f3fe608060405234801561001057600080fd5b50600436106101005760003560e01c80639669142411610097578063e23cec7b11610066578063e23cec7b1461024f578063e8f305231461026b578063f84028d514610275578063fb0277ab146102a557610100565b806396691424146101ed578063a581403a1461020b578063b3f98adc14610215578063cbb97b651461023157610100565b80634f84d8d8116100d35780634f84d8d8146101795780636c33d2ad1461019757806372d710b8146101b55780637af87410146101d157610100565b806306a49fce1461010557806309e9d7e2146101235780632c9e3ffe1461013f5780632ed986a71461015b575b600080fd5b61010d6102c1565b60405161011a9190612149565b60405180910390f35b61013d60048036038101906101389190611c91565b6103c6565b005b61015960048036038101906101549190611bfc565b6106e8565b005b6101636108e3565b6040516101709190612328565b60405180910390f35b61018161093c565b60405161018e9190612328565b60405180910390f35b61019f610946565b6040516101ac919061216b565b60405180910390f35b6101cf60048036038101906101ca9190611c91565b61099e565b005b6101eb60048036038101906101e69190611cba565b610c44565b005b6101f5610dc3565b604051610202919061218d565b60405180910390f35b610213610dcf565b005b61022f600480360381019061022a9190611d31565b610f71565b005b610239611250565b604051610246919061218d565b60405180910390f35b61026960048036038101906102649190611c3d565b6112df565b005b6102736114e5565b005b61028f600480360381019061028a9190611c91565b6117bc565b60405161029c9190612328565b60405180910390f35b6102bf60048036038101906102ba9190611c91565b6118de565b005b60606002805480602002602001604051908101604052809291908181526020016000905b828210156103bd578382906000526020600020906003020160405180606001604052908160008201805461031890612601565b80601f016020809104026020016040519081016040528092919081815260200182805461034490612601565b80156103915780601f1061036657610100808354040283529160200191610391565b820191906000526020600020905b81548152906001019060200180831161037457829003601f168201915b5050505050815260200160018201548152602001600282015481525050815260200190600101906102e5565b50505050905090565b60008054906101000a900473ffffffffffffffffffffffffffffffffffffffff1673ffffffffffffffffffffffffffffffffffffffff163373ffffffffffffffffffffffffffffffffffffffff1614610454576040517f08c379a000000000000000000000000000000000000000000000000000000000815260040161044b906121c8565b60405180910390fd5b6003600082815260200190815260200160002060009054906101000a900460ff166104b4576040517f08c379a00000000000000000000000000000000000000000000000000000000081526004016104ab906122c8565b60405180910390fd5b60095442116104f8576040517f08c379a00000000000000000000000000000000000000000000000000000000081526004016104ef906121e8565b60405180910390fd5b60005b6002805490508110156106e4578160028281548110610543577f4e487b7100000000000000000000000000000000000000000000000000000000600052603260045260246000fd5b90600052602060002090600302016001015414156106d15760006003600084815260200190815260200160002060006101000a81548160ff0219169083151502179055506002600160028054905061059b9190612534565b815481106105d2577f4e487b7100000000000000000000000000000000000000000000000000000000600052603260045260246000fd5b90600052602060002090600302016002828154811061061a577f4e487b7100000000000000000000000000000000000000000000000000000000600052603260045260246000fd5b9060005260206000209060030201600082018160000190805461063c90612601565b6106479291906118e8565b5060018201548160010155600282015481600201559050506002805480610697577f4e487b7100000000000000000000000000000000000000000000000000000000600052603160045260246000fd5b6001900381819060005260206000209060030201600080820160006106bc9190611975565b60018201600090556002820160009055505090555b80806106dc90612664565b9150506104fb565b5050565b60008054906101000a900473ffffffffffffffffffffffffffffffffffffffff1673ffffffffffffffffffffffffffffffffffffffff163373ffffffffffffffffffffffffffffffffffffffff1614610776576040517f08c379a000000000000000000000000000000000000000000000000000000000815260040161076d906121c8565b60405180910390fd5b60005b81518160ff1610156108df576005828260ff16815181106107c3577f4e487b7100000000000000000000000000000000000000000000000000000000600052603260045260246000fd5b60200260200101519080600181540180825580915050600190039060005260206000200160009091909190915055600160066000848460ff1681518110610833577f4e487b7100000000000000000000000000000000000000000000000000000000600052603260045260246000fd5b6020026020010151815260200190815260200160002060006101000a81548160ff0219169083151502179055506008828260ff168151811061089e577f4e487b7100000000000000000000000000000000000000000000000000000000600052603260045260246000fd5b6020026020010151908060018154018082558091505060019003906000526020600020016000909190919091505580806108d7906126ad565b915050610779565b5050565b60006009544210610929576040517f08c379a000000000000000000000000000000000000000000000000000000000815260040161092090612308565b60405180910390fd5b426009546109379190612534565b905090565b6000600154905090565b6060600580548060200260200160405190810160405280929190818152602001828054801561099457602002820191906000526020600020905b815481526020019060010190808311610980575b5050505050905090565b60008054906101000a900473ffffffffffffffffffffffffffffffffffffffff1673ffffffffffffffffffffffffffffffffffffffff163373ffffffffffffffffffffffffffffffffffffffff1614610a2c576040517f08c379a0000000000000000000000000000000000000000000000000000000008152600401610a23906121c8565b60405180910390fd5b6006600082815260200190815260200160002060009054906101000a900460ff16610a8c576040517f08c379a0000000000000000000000000000000000000000000000000000000008152600401610a8390612288565b60405180910390fd5b60005b600580549050811015610c40578160058281548110610ad7577f4e487b7100000000000000000000000000000000000000000000000000000000600052603260045260246000fd5b90600052602060002001541415610c2d5760006006600084815260200190815260200160002060006101000a81548160ff02191690831515021790555060006007600084815260200190815260200160002060006101000a81548160ff02191690831515021790555060056001600580549050610b549190612534565b81548110610b8b577f4e487b7100000000000000000000000000000000000000000000000000000000600052603260045260246000fd5b906000526020600020015460058281548110610bd0577f4e487b7100000000000000000000000000000000000000000000000000000000600052603260045260246000fd5b90600052602060002001819055506005805480610c16577f4e487b7100000000000000000000000000000000000000000000000000000000600052603160045260246000fd5b600190038181906000526020600020016000905590555b8080610c3890612664565b915050610a8f565b5050565b60008054906101000a900473ffffffffffffffffffffffffffffffffffffffff1673ffffffffffffffffffffffffffffffffffffffff163373ffffffffffffffffffffffffffffffffffffffff1614610cd2576040517f08c379a0000000000000000000000000000000000000000000000000000000008152600401610cc9906121c8565b60405180910390fd5b600280805490501015610d1a576040517f08c379a0000000000000000000000000000000000000000000000000000000008152600401610d1190612208565b60405180910390fd5b80603c83610d2891906124da565b610e1085610d3691906124da565b6201518087610d4591906124da565b62093a8089610d5491906124da565b42610d5f9190612484565b610d699190612484565b610d739190612484565b610d7d9190612484565b610d879190612484565b6009819055506009547fd0620cedbb1e03e8a5c59f460040ef78fd59fb3abf2fce0a3f43a2adf47be5e960405160405180910390a25050505050565b60006009544210905090565b60008054906101000a900473ffffffffffffffffffffffffffffffffffffffff1673ffffffffffffffffffffffffffffffffffffffff163373ffffffffffffffffffffffffffffffffffffffff1614610e5d576040517f08c379a0000000000000000000000000000000000000000000000000000000008152600401610e54906121c8565b60405180910390fd5b60005b600580549050811015610f605760006006600060088481548110610ead577f4e487b7100000000000000000000000000000000000000000000000000000000600052603260045260246000fd5b9060005260206000200154815260200190815260200160002060006101000a81548160ff02191690831515021790555060006007600060088481548110610f1d577f4e487b7100000000000000000000000000000000000000000000000000000000600052603260045260246000fd5b9060005260206000200154815260200190815260200160002060006101000a81548160ff0219169083151502179055508080610f5890612664565b915050610e60565b5060056000610f6f91906119b5565b565b6009544210610fb5576040517f08c379a0000000000000000000000000000000000000000000000000000000008152600401610fac90612308565b60405180910390fd5b610fbd611250565b610ffc576040517f08c379a0000000000000000000000000000000000000000000000000000000008152600401610ff390612248565b60405180910390fd5b60008160ff1611801561101757506002805490508160ff1611155b611056576040517f08c379a000000000000000000000000000000000000000000000000000000000815260040161104d906122e8565b60405180910390fd5b60076000600a54815260200190815260200160002060009054906101000a900460ff16156110b9576040517f08c379a00000000000000000000000000000000000000000000000000000000081526004016110b090612228565b60405180910390fd5b60026001826110c89190612568565b60ff1681548110611102577f4e487b7100000000000000000000000000000000000000000000000000000000600052603260045260246000fd5b9060005260206000209060030201600201600081548092919061112490612664565b919050555060026001826111389190612568565b60ff1681548110611172577f4e487b7100000000000000000000000000000000000000000000000000000000600052603260045260246000fd5b90600052602060002090600302016002015460026001836111939190612568565b60ff16815481106111cd577f4e487b7100000000000000000000000000000000000000000000000000000000600052603260045260246000fd5b90600052602060002090600302016000016040516111eb9190612132565b60405180910390207f9e647de7405bb63ec6bdd0cd5f5ddd1ab29b2ad666890eaf4ddc308fde9f39d560405160405180910390a3600160076000600a54815260200190815260200160002060006101000a81548160ff02191690831515021790555050565b600080600090505b6005805490508160ff1610156112d657600a5460058260ff16815481106112a8577f4e487b7100000000000000000000000000000000000000000000000000000000600052603260045260246000fd5b906000526020600020015414156112c35760019150506112dc565b80806112ce906126ad565b915050611258565b50600090505b90565b60008054906101000a900473ffffffffffffffffffffffffffffffffffffffff1673ffffffffffffffffffffffffffffffffffffffff163373ffffffffffffffffffffffffffffffffffffffff161461136d576040517f08c379a0000000000000000000000000000000000000000000000000000000008152600401611364906121c8565b60405180910390fd5b6003600082815260200190815260200160002060009054906101000a900460ff16156113ce576040517f08c379a00000000000000000000000000000000000000000000000000000000081526004016113c590612268565b60405180910390fd5b6009544211611412576040517f08c379a0000000000000000000000000000000000000000000000000000000008152600401611409906121a8565b60405180910390fd5b600260405180606001604052808481526020018381526020016000815250908060018154018082558091505060019003906000526020600020906003020160009091909190915060008201518160000190805190602001906114759291906119d6565b506020820151816001015560408201518160020155505060016003600083815260200190815260200160002060006101000a81548160ff02191690831515021790555060048190806001815401808255809150506001900390600052602060002001600090919091909150555050565b60008054906101000a900473ffffffffffffffffffffffffffffffffffffffff1673ffffffffffffffffffffffffffffffffffffffff163373ffffffffffffffffffffffffffffffffffffffff1614611573576040517f08c379a000000000000000000000000000000000000000000000000000000000815260040161156a906121c8565b60405180910390fd5b60095442106115b7576040517f08c379a00000000000000000000000000000000000000000000000000000000081526004016115ae90612308565b60405180910390fd5b60005b60028054905081101561164a5760006003600060048481548110611607577f4e487b7100000000000000000000000000000000000000000000000000000000600052603260045260246000fd5b9060005260206000200154815260200190815260200160002060006101000a81548160ff021916908315150217905550808061164290612664565b9150506115ba565b5060005b60058054905081101561174e576000600660006008848154811061169b577f4e487b7100000000000000000000000000000000000000000000000000000000600052603260045260246000fd5b9060005260206000200154815260200190815260200160002060006101000a81548160ff0219169083151502179055506000600760006008848154811061170b577f4e487b7100000000000000000000000000000000000000000000000000000000600052603260045260246000fd5b9060005260206000200154815260200190815260200160002060006101000a81548160ff021916908315150217905550808061174690612664565b91505061164e565b506002600061175d9190611a5c565b6005600061176b91906119b5565b60006009819055506001600081548092919061178690612664565b91905055506001547f255af500d3b382c6aefa7fcb5720ee98710a491c3dd03cd10dc45ec66aa92c4d60405160405180910390a2565b6000806000905060005b60028054905081101561184257836002828154811061180e577f4e487b7100000000000000000000000000000000000000000000000000000000600052603260045260246000fd5b906000526020600020906003020160010154141561182f5760019150611842565b808061183a90612664565b9150506117c6565b6001151582151514611889576040517f08c379a0000000000000000000000000000000000000000000000000000000008152600401611880906122a8565b60405180910390fd5b600281815481106118c3577f4e487b7100000000000000000000000000000000000000000000000000000000600052603260045260246000fd5b90600052602060002090600302016002015492505050919050565b80600a8190555050565b8280546118f490612601565b90600052602060002090601f0160209004810192826119165760008555611964565b82601f106119275780548555611964565b8280016001018555821561196457600052602060002091601f016020900482015b82811115611963578254825591600101919060010190611948565b5b5090506119719190611a80565b5090565b50805461198190612601565b6000825580601f1061199357506119b2565b601f0160209004906000526020600020908101906119b19190611a80565b5b50565b50805460008255906000526020600020908101906119d39190611a80565b50565b8280546119e290612601565b90600052602060002090601f016020900481019282611a045760008555611a4b565b82601f10611a1d57805160ff1916838001178555611a4b565b82800160010185558215611a4b579182015b82811115611a4a578251825591602001919060010190611a2f565b5b509050611a589190611a80565b5090565b5080546000825560030290600052602060002090810190611a7d9190611a9d565b50565b5b80821115611a99576000816000905550600101611a81565b5090565b5b80821115611ad05760008082016000611ab79190611975565b6001820160009055600282016000905550600301611a9e565b5090565b6000611ae7611ae284612368565b612343565b90508083825260208201905082856020860282011115611b0657600080fd5b60005b85811015611b365781611b1c8882611bd2565b845260208401935060208301925050600181019050611b09565b5050509392505050565b6000611b53611b4e84612394565b612343565b905082815260208101848484011115611b6b57600080fd5b611b768482856125bf565b509392505050565b600082601f830112611b8f57600080fd5b8135611b9f848260208601611ad4565b91505092915050565b600082601f830112611bb957600080fd5b8135611bc9848260208601611b40565b91505092915050565b600081359050611be181612a1f565b92915050565b600081359050611bf681612a36565b92915050565b600060208284031215611c0e57600080fd5b600082013567ffffffffffffffff811115611c2857600080fd5b611c3484828501611b7e565b91505092915050565b60008060408385031215611c5057600080fd5b600083013567ffffffffffffffff811115611c6a57600080fd5b611c7685828601611ba8565b9250506020611c8785828601611bd2565b9150509250929050565b600060208284031215611ca357600080fd5b6000611cb184828501611bd2565b91505092915050565b600080600080600060a08688031215611cd257600080fd5b6000611ce088828901611bd2565b9550506020611cf188828901611bd2565b9450506040611d0288828901611bd2565b9350506060611d1388828901611bd2565b9250506080611d2488828901611bd2565b9150509295509295909350565b600060208284031215611d4357600080fd5b6000611d5184828501611be7565b91505092915050565b6000611d6683836120c4565b905092915050565b6000611d7a8383612114565b60208301905092915050565b6000611d91826123fa565b611d9b8185612435565b935083602082028501611dad856123c5565b8060005b85811015611de95784840389528151611dca8582611d5a565b9450611dd58361241b565b925060208a01995050600181019050611db1565b50829750879550505050505092915050565b6000611e0682612405565b611e108185612446565b9350611e1b836123d5565b8060005b83811015611e4c578151611e338882611d6e565b9750611e3e83612428565b925050600181019050611e1f565b5085935050505092915050565b611e628161259c565b82525050565b6000611e7382612410565b611e7d8185612457565b9350611e8d8185602086016125ce565b611e9681612764565b840191505092915050565b60008154611eae81612601565b611eb88186612479565b94506001821660008114611ed35760018114611ee457611f17565b60ff19831686528186019350611f17565b611eed856123e5565b60005b83811015611f0f57815481890152600182019150602081019050611ef0565b838801955050505b50505092915050565b6000611f2d603983612468565b9150611f3882612775565b604082019050919050565b6000611f50602283612468565b9150611f5b826127c4565b604082019050919050565b6000611f73603b83612468565b9150611f7e82612813565b604082019050919050565b6000611f96604183612468565b9150611fa182612862565b606082019050919050565b6000611fb9601783612468565b9150611fc4826128d7565b602082019050919050565b6000611fdc600c83612468565b9150611fe782612900565b602082019050919050565b6000611fff601283612468565b915061200a82612929565b602082019050919050565b6000612022600e83612468565b915061202d82612952565b602082019050919050565b6000612045601583612468565b91506120508261297b565b602082019050919050565b6000612068601783612468565b9150612073826129a4565b602082019050919050565b600061208b601883612468565b9150612096826129cd565b602082019050919050565b60006120ae601d83612468565b91506120b9826129f6565b602082019050919050565b600060608301600083015184820360008601526120e18282611e68565b91505060208301516120f66020860182612114565b5060408301516121096040860182612114565b508091505092915050565b61211d816125a8565b82525050565b61212c816125a8565b82525050565b600061213e8284611ea1565b915081905092915050565b600060208201905081810360008301526121638184611d86565b905092915050565b600060208201905081810360008301526121858184611dfb565b905092915050565b60006020820190506121a26000830184611e59565b92915050565b600060208201905081810360008301526121c181611f20565b9050919050565b600060208201905081810360008301526121e181611f43565b9050919050565b6000602082019050818103600083015261220181611f66565b9050919050565b6000602082019050818103600083015261222181611f89565b9050919050565b6000602082019050818103600083015261224181611fac565b9050919050565b6000602082019050818103600083015261226181611fcf565b9050919050565b6000602082019050818103600083015261228181611ff2565b9050919050565b600060208201905081810360008301526122a181612015565b9050919050565b600060208201905081810360008301526122c181612038565b9050919050565b600060208201905081810360008301526122e18161205b565b9050919050565b600060208201905081810360008301526123018161207e565b9050919050565b60006020820190508181036000830152612321816120a1565b9050919050565b600060208201905061233d6000830184612123565b92915050565b600061234d61235e565b90506123598282612633565b919050565b6000604051905090565b600067ffffffffffffffff82111561238357612382612735565b5b602082029050602081019050919050565b600067ffffffffffffffff8211156123af576123ae612735565b5b6123b882612764565b9050602081019050919050565b6000819050602082019050919050565b6000819050602082019050919050565b60008190508160005260206000209050919050565b600081519050919050565b600081519050919050565b600081519050919050565b6000602082019050919050565b6000602082019050919050565b600082825260208201905092915050565b600082825260208201905092915050565b600082825260208201905092915050565b600082825260208201905092915050565b600081905092915050565b600061248f826125a8565b915061249a836125a8565b9250827fffffffffffffffffffffffffffffffffffffffffffffffffffffffffffffffff038211156124cf576124ce6126d7565b5b828201905092915050565b60006124e5826125a8565b91506124f0836125a8565b9250817fffffffffffffffffffffffffffffffffffffffffffffffffffffffffffffffff0483118215151615612529576125286126d7565b5b828202905092915050565b600061253f826125a8565b915061254a836125a8565b92508282101561255d5761255c6126d7565b5b828203905092915050565b6000612573826125b2565b915061257e836125b2565b925082821015612591576125906126d7565b5b828203905092915050565b60008115159050919050565b6000819050919050565b600060ff82169050919050565b82818337600083830152505050565b60005b838110156125ec5780820151818401526020810190506125d1565b838111156125fb576000848401525b50505050565b6000600282049050600182168061261957607f821691505b6020821081141561262d5761262c612706565b5b50919050565b61263c82612764565b810181811067ffffffffffffffff8211171561265b5761265a612735565b5b80604052505050565b600061266f826125a8565b91507fffffffffffffffffffffffffffffffffffffffffffffffffffffffffffffffff8214156126a2576126a16126d7565b5b600182019050919050565b60006126b8826125b2565b915060ff8214156126cc576126cb6126d7565b5b600182019050919050565b7f4e487b7100000000000000000000000000000000000000000000000000000000600052601160045260246000fd5b7f4e487b7100000000000000000000000000000000000000000000000000000000600052602260045260246000fd5b7f4e487b7100000000000000000000000000000000000000000000000000000000600052604160045260246000fd5b6000601f19601f8301169050919050565b7f416464696e672063616e6469646174652069732070726f68696269746564207760008201527f68656e20656c656374696f6e2068617320737461727465642e00000000000000602082015250565b7f4f6e6c7920686f73742063616e2061636365737320746f20746869732061726560008201527f6121000000000000000000000000000000000000000000000000000000000000602082015250565b7f52656d6f76696e672063616e6469646174652069732070726f6869626974656460008201527f207768656e20656c656374696f6e2068617320737461727465642e0000000000602082015250565b7f4174206c656173742032206f72206d6f72652043616e6469646174657320617260008201527f6520726571756972656420746f2073746172742074686520456c656374696f6e60208201527f2100000000000000000000000000000000000000000000000000000000000000604082015250565b7f596f75206861766520616c726561647920766f74656421000000000000000000600082015250565b7f496e76616c696420544143210000000000000000000000000000000000000000600082015250565b7f43616e6469646174652045786973746564210000000000000000000000000000600082015250565b7f544143206e6f7420666f756e6421000000000000000000000000000000000000600082015250565b7f496e76616c69642043616e646964617465204944210000000000000000000000600082015250565b7f43616e646964617465204944206e6f7420666f756e6421000000000000000000600082015250565b7f496e76616c69642043616e64696461746520496e646578210000000000000000600082015250565b7f456c656374696f6e20686173206e6f7420737461727465642079657421000000600082015250565b612a28816125a8565b8114612a3357600080fd5b50565b612a3f816125b2565b8114612a4a57600080fd5b5056fea264697066735822122008bcf3e1dc1d3d3c20fe6aa16f7a411d2f055993be3115bb4bbbcebf6a1f02d364736f6c63430008020033",
  "linkReferences": {},
  "deployedLinkReferences": {}
}