{
  "_format": "hh-sol-artifact-1",
  "contractName": "Candidates",
  "sourceName": "contracts/DVS_v1.sol",
  "abi": [
    {
      "anonymous": false,
      "inputs": [
        {
          "components": [
            {
              "internalType": "address",
              "name": "id_hash",
              "type": "address"
            },
            {
              "internalType": "string",
              "name": "name",
              "type": "string"
            },
            {
              "internalType": "uint8",
              "name": "id",
              "type": "uint8"
            },
            {
              "internalType": "uint8",
              "name": "voteCount",
              "type": "uint8"
            }
          ],
          "indexed": false,
          "internalType": "struct Candidates.Candidate[]",
          "name": "",
          "type": "tuple[]"
        }
      ],
      "name": "CandidatesUpdated",
      "type": "event"
    },
    {
      "inputs": [
        {
          "internalType": "uint256",
          "name": "",
          "type": "uint256"
        }
      ],
      "name": "candidate",
      "outputs": [
        {
          "internalType": "address",
          "name": "id_hash",
          "type": "address"
        },
        {
          "internalType": "string",
          "name": "name",
          "type": "string"
        },
        {
          "internalType": "uint8",
          "name": "id",
          "type": "uint8"
        },
        {
          "internalType": "uint8",
          "name": "voteCount",
          "type": "uint8"
        }
      ],
      "stateMutability": "view",
      "type": "function"
    },
    {
      "inputs": [],
      "name": "getHost",
      "outputs": [
        {
          "internalType": "address",
          "name": "",
          "type": "address"
        }
      ],
      "stateMutability": "view",
      "type": "function"
    },
    {
      "inputs": [],
      "name": "getUsers",
      "outputs": [
        {
          "internalType": "address[]",
          "name": "",
          "type": "address[]"
        }
      ],
      "stateMutability": "view",
      "type": "function"
    },
    {
      "inputs": [],
      "name": "logUser",
      "outputs": [],
      "stateMutability": "nonpayable",
      "type": "function"
    },
    {
      "inputs": [
        {
          "internalType": "address[]",
          "name": "address_",
          "type": "address[]"
        },
        {
          "internalType": "string[]",
          "name": "name",
          "type": "string[]"
        },
        {
          "internalType": "uint8[]",
          "name": "id",
          "type": "uint8[]"
        }
      ],
      "name": "setCandidates",
      "outputs": [],
      "stateMutability": "nonpayable",
      "type": "function"
    },
    {
      "inputs": [
        {
          "internalType": "uint8",
          "name": "id",
          "type": "uint8"
        }
      ],
      "name": "setID",
      "outputs": [],
      "stateMutability": "nonpayable",
      "type": "function"
    }
  ],
  "bytecode": "0x608060405234801561001057600080fd5b50336000806101000a81548173ffffffffffffffffffffffffffffffffffffffff021916908373ffffffffffffffffffffffffffffffffffffffff160217905550611247806100606000396000f3fe608060405234801561001057600080fd5b50600436106100615760003560e01c8062ce8e3e146100665780631de43c4b1461008457806320bc4425146100b757806357c6245b146100d55780638b2abe87146100f1578063f873a131146100fb575b600080fd5b61006e610117565b60405161007b9190610d8b565b60405180910390f35b61009e60048036038101906100999190610a61565b6101a5565b6040516100ae9493929190610d3f565b60405180910390f35b6100bf6102a7565b6040516100cc9190610d24565b60405180910390f35b6100ef60048036038101906100ea91906109ca565b6102d0565b005b6100f96105a0565b005b61011560048036038101906101109190610a8a565b6106af565b005b6060600180548060200260200160405190810160405280929190818152602001828054801561019b57602002820191906000526020600020905b8160009054906101000a900473ffffffffffffffffffffffffffffffffffffffff1673ffffffffffffffffffffffffffffffffffffffff1681526020019060010190808311610151575b5050505050905090565b600481815481106101b557600080fd5b90600052602060002090600302016000915090508060000160009054906101000a900473ffffffffffffffffffffffffffffffffffffffff16908060010180546101fe9061101a565b80601f016020809104026020016040519081016040528092919081815260200182805461022a9061101a565b80156102775780601f1061024c57610100808354040283529160200191610277565b820191906000526020600020905b81548152906001019060200180831161025a57829003601f168201915b5050505050908060020160009054906101000a900460ff16908060020160019054906101000a900460ff16905084565b60008060009054906101000a900473ffffffffffffffffffffffffffffffffffffffff16905090565b60005b825181101561056257838181518110610315577f4e487b7100000000000000000000000000000000000000000000000000000000600052603260045260246000fd5b602002602001015160048281548110610357577f4e487b7100000000000000000000000000000000000000000000000000000000600052603260045260246000fd5b906000526020600020906003020160000160006101000a81548173ffffffffffffffffffffffffffffffffffffffff021916908373ffffffffffffffffffffffffffffffffffffffff1602179055508281815181106103df577f4e487b7100000000000000000000000000000000000000000000000000000000600052603260045260246000fd5b602002602001015160048281548110610421577f4e487b7100000000000000000000000000000000000000000000000000000000600052603260045260246000fd5b906000526020600020906003020160010190805190602001906104459291906106cd565b5081818151811061047f577f4e487b7100000000000000000000000000000000000000000000000000000000600052603260045260246000fd5b6020026020010151600482815481106104c1577f4e487b7100000000000000000000000000000000000000000000000000000000600052603260045260246000fd5b906000526020600020906003020160020160006101000a81548160ff021916908360ff160217905550600060048281548110610526577f4e487b7100000000000000000000000000000000000000000000000000000000600052603260045260246000fd5b906000526020600020906003020160020160016101000a81548160ff021916908360ff160217905550808061055a906110cb565b9150506102d3565b507fbc8faba43ec6a3612332f47b50cfcd69819e0c688b9e6406e610631dcf55b8f760046040516105939190610dad565b60405180910390a1505050565b600260003373ffffffffffffffffffffffffffffffffffffffff1673ffffffffffffffffffffffffffffffffffffffff16815260200190815260200160002060009054906101000a900460ff166106ad576001339080600181540180825580915050600190039060005260206000200160009091909190916101000a81548173ffffffffffffffffffffffffffffffffffffffff021916908373ffffffffffffffffffffffffffffffffffffffff1602179055506001600260003373ffffffffffffffffffffffffffffffffffffffff1673ffffffffffffffffffffffffffffffffffffffff16815260200190815260200160002060006101000a81548160ff0219169083151502179055505b565b80600360006101000a81548160ff021916908360ff16021790555050565b8280546106d99061101a565b90600052602060002090601f0160209004810192826106fb5760008555610742565b82601f1061071457805160ff1916838001178555610742565b82800160010185558215610742579182015b82811115610741578251825591602001919060010190610726565b5b50905061074f9190610753565b5090565b5b8082111561076c576000816000905550600101610754565b5090565b600061078361077e84610df4565b610dcf565b905080838252602082019050828560208602820111156107a257600080fd5b60005b858110156107d257816107b888826108e3565b8452602084019350602083019250506001810190506107a5565b5050509392505050565b60006107ef6107ea84610e20565b610dcf565b9050808382526020820190508260005b8581101561082f57813585016108158882610976565b8452602084019350602083019250506001810190506107ff565b5050509392505050565b600061084c61084784610e4c565b610dcf565b9050808382526020820190508285602086028201111561086b57600080fd5b60005b8581101561089b578161088188826109b5565b84526020840193506020830192505060018101905061086e565b5050509392505050565b60006108b86108b384610e78565b610dcf565b9050828152602081018484840111156108d057600080fd5b6108db848285610fd8565b509392505050565b6000813590506108f2816111cc565b92915050565b600082601f83011261090957600080fd5b8135610919848260208601610770565b91505092915050565b600082601f83011261093357600080fd5b81356109438482602086016107dc565b91505092915050565b600082601f83011261095d57600080fd5b813561096d848260208601610839565b91505092915050565b600082601f83011261098757600080fd5b81356109978482602086016108a5565b91505092915050565b6000813590506109af816111e3565b92915050565b6000813590506109c4816111fa565b92915050565b6000806000606084860312156109df57600080fd5b600084013567ffffffffffffffff8111156109f957600080fd5b610a05868287016108f8565b935050602084013567ffffffffffffffff811115610a2257600080fd5b610a2e86828701610922565b925050604084013567ffffffffffffffff811115610a4b57600080fd5b610a578682870161094c565b9150509250925092565b600060208284031215610a7357600080fd5b6000610a81848285016109a0565b91505092915050565b600060208284031215610a9c57600080fd5b6000610aaa848285016109b5565b91505092915050565b6000610abf8383610adf565b60208301905092915050565b6000610ad78383610c88565b905092915050565b610ae881610f8f565b82525050565b610af781610f8f565b82525050565b6000610b0882610ee3565b610b128185610f1e565b9350610b1d83610ea9565b8060005b83811015610b4e578151610b358882610ab3565b9750610b4083610f04565b925050600181019050610b21565b5085935050505092915050565b6000610b6682610eee565b610b708185610f2f565b935083602082028501610b8285610eb9565b8060005b85811015610bbd57848403895281610b9e8582610acb565b9450610ba983610f11565b925060208a01995050600181019050610b86565b50829750879550505050505092915050565b6000610bda82610ef9565b610be48185610f51565b9350610bf4818560208601610fe7565b610bfd816111a1565b840191505092915050565b60008154610c158161101a565b610c1f8186610f40565b94506001821660008114610c3a5760018114610c4c57610c7f565b60ff1983168652602086019350610c7f565b610c5585610ece565b60005b83811015610c7757815481890152600182019150602081019050610c58565b808801955050505b50505092915050565b6000608083016000808401549050610c9f8161104c565b610cac6000870182610adf565b50600184018583036020870152610cc38382610c08565b92505060028401549050610cd681611066565b610ce36040870182610d06565b50610ced81611080565b610cfa6060870182610d06565b50819250505092915050565b610d0f81610fcb565b82525050565b610d1e81610fcb565b82525050565b6000602082019050610d396000830184610aee565b92915050565b6000608082019050610d546000830187610aee565b8181036020830152610d668186610bcf565b9050610d756040830185610d15565b610d826060830184610d15565b95945050505050565b60006020820190508181036000830152610da58184610afd565b905092915050565b60006020820190508181036000830152610dc78184610b5b565b905092915050565b6000610dd9610dea565b9050610de5828261109a565b919050565b6000604051905090565b600067ffffffffffffffff821115610e0f57610e0e611172565b5b602082029050602081019050919050565b600067ffffffffffffffff821115610e3b57610e3a611172565b5b602082029050602081019050919050565b600067ffffffffffffffff821115610e6757610e66611172565b5b602082029050602081019050919050565b600067ffffffffffffffff821115610e9357610e92611172565b5b610e9c826111a1565b9050602081019050919050565b6000819050602082019050919050565b60008190508160005260206000209050919050565b60008190508160005260206000209050919050565b600081519050919050565b600081549050919050565b600081519050919050565b6000602082019050919050565b6000600382019050919050565b600082825260208201905092915050565b600082825260208201905092915050565b600082825260208201905092915050565b600082825260208201905092915050565b600073ffffffffffffffffffffffffffffffffffffffff82169050919050565b600060ff82169050919050565b6000610f9a82610fa1565b9050919050565b600073ffffffffffffffffffffffffffffffffffffffff82169050919050565b6000819050919050565b600060ff82169050919050565b82818337600083830152505050565b60005b83811015611005578082015181840152602081019050610fea565b83811115611014576000848401525b50505050565b6000600282049050600182168061103257607f821691505b6020821081141561104657611045611143565b5b50919050565b600061105f61105a836111b2565b610f62565b9050919050565b6000611079611074836111b2565b610f82565b9050919050565b600061109361108e836111bf565b610f82565b9050919050565b6110a3826111a1565b810181811067ffffffffffffffff821117156110c2576110c1611172565b5b80604052505050565b60006110d682610fc1565b91507fffffffffffffffffffffffffffffffffffffffffffffffffffffffffffffffff82141561110957611108611114565b5b600182019050919050565b7f4e487b7100000000000000000000000000000000000000000000000000000000600052601160045260246000fd5b7f4e487b7100000000000000000000000000000000000000000000000000000000600052602260045260246000fd5b7f4e487b7100000000000000000000000000000000000000000000000000000000600052604160045260246000fd5b6000601f19601f8301169050919050565b60008160001c9050919050565b60008160081c9050919050565b6111d581610f8f565b81146111e057600080fd5b50565b6111ec81610fc1565b81146111f757600080fd5b50565b61120381610fcb565b811461120e57600080fd5b5056fea26469706673582212208ed9d447d99868d74ed3c458398c43a5c2d6ba35a30f3055a7fdbbcc379f27fc64736f6c63430008020033",
  "linkReferences": {},
  "deployedLinkReferences": {}
}