{
  "_format": "hh-sol-artifact-1",
  "contractName": "Election",
  "sourceName": "contracts/DVS_v1.sol",
  "abi": [
    {
      "inputs": [],
      "stateMutability": "nonpayable",
      "type": "constructor"
    },
    {
      "inputs": [],
      "name": "getHost",
      "outputs": [
        {
          "internalType": "address",
          "name": "",
          "type": "address"
        }
      ],
      "stateMutability": "view",
      "type": "function"
    },
    {
      "inputs": [],
      "name": "getUsers",
      "outputs": [
        {
          "internalType": "address[]",
          "name": "",
          "type": "address[]"
        }
      ],
      "stateMutability": "view",
      "type": "function"
    },
    {
      "inputs": [],
      "name": "logUser",
      "outputs": [],
      "stateMutability": "nonpayable",
      "type": "function"
    },
    {
      "inputs": [
        {
          "internalType": "uint8",
          "name": "id",
          "type": "uint8"
        }
      ],
      "name": "setID",
      "outputs": [],
      "stateMutability": "nonpayable",
      "type": "function"
    }
  ],
  "bytecode": "0x608060405234801561001057600080fd5b50336000806101000a81548173ffffffffffffffffffffffffffffffffffffffff021916908373ffffffffffffffffffffffffffffffffffffffff16021790555061046a806100606000396000f3fe608060405234801561001057600080fd5b506004361061004b5760003560e01c8062ce8e3e1461005057806320bc44251461006e5780638b2abe871461008c578063f873a13114610096575b600080fd5b6100586100b2565b6040516100659190610383565b60405180910390f35b610076610140565b6040516100839190610368565b60405180910390f35b610094610169565b005b6100b060048036038101906100ab91906102ab565b610278565b005b6060600180548060200260200160405190810160405280929190818152602001828054801561013657602002820191906000526020600020905b8160009054906101000a900473ffffffffffffffffffffffffffffffffffffffff1673ffffffffffffffffffffffffffffffffffffffff16815260200190600101908083116100ec575b5050505050905090565b60008060009054906101000a900473ffffffffffffffffffffffffffffffffffffffff16905090565b600260003373ffffffffffffffffffffffffffffffffffffffff1673ffffffffffffffffffffffffffffffffffffffff16815260200190815260200160002060009054906101000a900460ff16610276576001339080600181540180825580915050600190039060005260206000200160009091909190916101000a81548173ffffffffffffffffffffffffffffffffffffffff021916908373ffffffffffffffffffffffffffffffffffffffff1602179055506001600260003373ffffffffffffffffffffffffffffffffffffffff1673ffffffffffffffffffffffffffffffffffffffff16815260200190815260200160002060006101000a81548160ff0219169083151502179055505b565b80600360006101000a81548160ff021916908360ff16021790555050565b6000813590506102a58161041d565b92915050565b6000602082840312156102bd57600080fd5b60006102cb84828501610296565b91505092915050565b60006102e083836102ec565b60208301905092915050565b6102f5816103de565b82525050565b610304816103de565b82525050565b6000610315826103b5565b61031f81856103cd565b935061032a836103a5565b8060005b8381101561035b57815161034288826102d4565b975061034d836103c0565b92505060018101905061032e565b5085935050505092915050565b600060208201905061037d60008301846102fb565b92915050565b6000602082019050818103600083015261039d818461030a565b905092915050565b6000819050602082019050919050565b600081519050919050565b6000602082019050919050565b600082825260208201905092915050565b60006103e9826103f0565b9050919050565b600073ffffffffffffffffffffffffffffffffffffffff82169050919050565b600060ff82169050919050565b61042681610410565b811461043157600080fd5b5056fea26469706673582212206a0a93b76eb35b611e4ccf9ca56b44ef6169bab09691ece211ec45798470703c64736f6c63430008020033",
  "linkReferences": {},
  "deployedLinkReferences": {}
}