{
  "_format": "hh-sol-artifact-1",
  "contractName": "Voters",
  "sourceName": "contracts/DVS_v1.sol",
  "abi": [
    {
      "inputs": [],
      "name": "getHost",
      "outputs": [
        {
          "internalType": "address",
          "name": "",
          "type": "address"
        }
      ],
      "stateMutability": "view",
      "type": "function"
    },
    {
      "inputs": [],
      "name": "getUsers",
      "outputs": [
        {
          "internalType": "address[]",
          "name": "",
          "type": "address[]"
        }
      ],
      "stateMutability": "view",
      "type": "function"
    },
    {
      "inputs": [
        {
          "internalType": "address",
          "name": "",
          "type": "address"
        }
      ],
      "name": "isVoted",
      "outputs": [
        {
          "internalType": "bool",
          "name": "",
          "type": "bool"
        }
      ],
      "stateMutability": "view",
      "type": "function"
    },
    {
      "inputs": [],
      "name": "logUser",
      "outputs": [],
      "stateMutability": "nonpayable",
      "type": "function"
    },
    {
      "inputs": [
        {
          "internalType": "uint8",
          "name": "id",
          "type": "uint8"
        }
      ],
      "name": "setID",
      "outputs": [],
      "stateMutability": "nonpayable",
      "type": "function"
    },
    {
      "inputs": [
        {
          "internalType": "uint256",
          "name": "",
          "type": "uint256"
        }
      ],
      "name": "voter",
      "outputs": [
        {
          "internalType": "address",
          "name": "id_hash",
          "type": "address"
        },
        {
          "internalType": "string",
          "name": "name",
          "type": "string"
        },
        {
          "internalType": "uint8",
          "name": "id",
          "type": "uint8"
        },
        {
          "internalType": "uint8",
          "name": "phone",
          "type": "uint8"
        },
        {
          "internalType": "string",
          "name": "address_",
          "type": "string"
        },
        {
          "internalType": "int256",
          "name": "TAC",
          "type": "int256"
        }
      ],
      "stateMutability": "view",
      "type": "function"
    }
  ],
  "bytecode": "0x608060405234801561001057600080fd5b50336000806101000a81548173ffffffffffffffffffffffffffffffffffffffff021916908373ffffffffffffffffffffffffffffffffffffffff160217905550610916806100606000396000f3fe608060405234801561001057600080fd5b50600436106100615760003560e01c8062ce8e3e1461006657806320bc4425146100845780638b2abe87146100a2578063ab8ed1ba146100ac578063cbff75cb146100e1578063f873a13114610111575b600080fd5b61006e61012d565b60405161007b9190610705565b60405180910390f35b61008c6101bb565b604051610099919061067b565b60405180910390f35b6100aa6101e4565b005b6100c660048036038101906100c1919061052f565b6102f3565b6040516100d896959493929190610696565b60405180910390f35b6100fb60048036038101906100f69190610506565b610489565b6040516101089190610727565b60405180910390f35b61012b60048036038101906101269190610558565b6104a9565b005b606060018054806020026020016040519081016040528092919081815260200182805480156101b157602002820191906000526020600020905b8160009054906101000a900473ffffffffffffffffffffffffffffffffffffffff1673ffffffffffffffffffffffffffffffffffffffff1681526020019060010190808311610167575b5050505050905090565b60008060009054906101000a900473ffffffffffffffffffffffffffffffffffffffff16905090565b600260003373ffffffffffffffffffffffffffffffffffffffff1673ffffffffffffffffffffffffffffffffffffffff16815260200190815260200160002060009054906101000a900460ff166102f1576001339080600181540180825580915050600190039060005260206000200160009091909190916101000a81548173ffffffffffffffffffffffffffffffffffffffff021916908373ffffffffffffffffffffffffffffffffffffffff1602179055506001600260003373ffffffffffffffffffffffffffffffffffffffff1673ffffffffffffffffffffffffffffffffffffffff16815260200190815260200160002060006101000a81548160ff0219169083151502179055505b565b6004818154811061030357600080fd5b90600052602060002090600502016000915090508060000160009054906101000a900473ffffffffffffffffffffffffffffffffffffffff169080600101805461034c90610829565b80601f016020809104026020016040519081016040528092919081815260200182805461037890610829565b80156103c55780601f1061039a576101008083540402835291602001916103c5565b820191906000526020600020905b8154815290600101906020018083116103a857829003601f168201915b5050505050908060020160009054906101000a900460ff16908060020160019054906101000a900460ff169080600301805461040090610829565b80601f016020809104026020016040519081016040528092919081815260200182805461042c90610829565b80156104795780601f1061044e57610100808354040283529160200191610479565b820191906000526020600020905b81548152906001019060200180831161045c57829003601f168201915b5050505050908060040154905086565b60056020528060005260406000206000915054906101000a900460ff1681565b80600360006101000a81548160ff021916908360ff16021790555050565b6000813590506104d68161089b565b92915050565b6000813590506104eb816108b2565b92915050565b600081359050610500816108c9565b92915050565b60006020828403121561051857600080fd5b6000610526848285016104c7565b91505092915050565b60006020828403121561054157600080fd5b600061054f848285016104dc565b91505092915050565b60006020828403121561056a57600080fd5b6000610578848285016104f1565b91505092915050565b600061058d8383610599565b60208301905092915050565b6105a281610797565b82525050565b6105b181610797565b82525050565b60006105c282610752565b6105cc8185610775565b93506105d783610742565b8060005b838110156106085781516105ef8882610581565b97506105fa83610768565b9250506001810190506105db565b5085935050505092915050565b61061e816107a9565b82525050565b61062d816107b5565b82525050565b600061063e8261075d565b6106488185610786565b93506106588185602086016107f6565b6106618161088a565b840191505092915050565b610675816107e9565b82525050565b600060208201905061069060008301846105a8565b92915050565b600060c0820190506106ab60008301896105a8565b81810360208301526106bd8188610633565b90506106cc604083018761066c565b6106d9606083018661066c565b81810360808301526106eb8185610633565b90506106fa60a0830184610624565b979650505050505050565b6000602082019050818103600083015261071f81846105b7565b905092915050565b600060208201905061073c6000830184610615565b92915050565b6000819050602082019050919050565b600081519050919050565b600081519050919050565b6000602082019050919050565b600082825260208201905092915050565b600082825260208201905092915050565b60006107a2826107bf565b9050919050565b60008115159050919050565b6000819050919050565b600073ffffffffffffffffffffffffffffffffffffffff82169050919050565b6000819050919050565b600060ff82169050919050565b60005b838110156108145780820151818401526020810190506107f9565b83811115610823576000848401525b50505050565b6000600282049050600182168061084157607f821691505b602082108114156108555761085461085b565b5b50919050565b7f4e487b7100000000000000000000000000000000000000000000000000000000600052602260045260246000fd5b6000601f19601f8301169050919050565b6108a481610797565b81146108af57600080fd5b50565b6108bb816107df565b81146108c657600080fd5b50565b6108d2816107e9565b81146108dd57600080fd5b5056fea2646970667358221220e86fc75f036228e8707e702c8d5396040490bf52e43bba9afdfc3a7e92e2a9f264736f6c63430008020033",
  "linkReferences": {},
  "deployedLinkReferences": {}
}