{
  "_format": "hh-sol-artifact-1",
  "contractName": "Candidate",
  "sourceName": "contracts/DVS.sol",
  "abi": [
    {
      "anonymous": false,
      "inputs": [
        {
          "indexed": true,
          "internalType": "address",
          "name": "host_",
          "type": "address"
        }
      ],
      "name": "constructor_",
      "type": "event"
    },
    {
      "anonymous": false,
      "inputs": [
        {
          "indexed": true,
          "internalType": "uint256",
          "name": "resetCount",
          "type": "uint256"
        }
      ],
      "name": "resetElection_",
      "type": "event"
    },
    {
      "anonymous": false,
      "inputs": [
        {
          "indexed": true,
          "internalType": "uint256",
          "name": "endTime_",
          "type": "uint256"
        }
      ],
      "name": "setElection_time_",
      "type": "event"
    },
    {
      "inputs": [
        {
          "internalType": "string",
          "name": "name_",
          "type": "string"
        },
        {
          "internalType": "uint256",
          "name": "id_",
          "type": "uint256"
        }
      ],
      "name": "addCandidate",
      "outputs": [],
      "stateMutability": "nonpayable",
      "type": "function"
    },
    {
      "inputs": [],
      "name": "getCandidates",
      "outputs": [
        {
          "components": [
            {
              "internalType": "string",
              "name": "name",
              "type": "string"
            },
            {
              "internalType": "uint256",
              "name": "id",
              "type": "uint256"
            },
            {
              "internalType": "uint256",
              "name": "voteCount",
              "type": "uint256"
            }
          ],
          "internalType": "struct Election.Candidate_[]",
          "name": "",
          "type": "tuple[]"
        }
      ],
      "stateMutability": "view",
      "type": "function"
    },
    {
      "inputs": [
        {
          "internalType": "uint256",
          "name": "id",
          "type": "uint256"
        }
      ],
      "name": "getCandidates_votecount",
      "outputs": [
        {
          "internalType": "uint256",
          "name": "",
          "type": "uint256"
        }
      ],
      "stateMutability": "view",
      "type": "function"
    },
    {
      "inputs": [],
      "name": "getElection_status",
      "outputs": [
        {
          "internalType": "bool",
          "name": "",
          "type": "bool"
        }
      ],
      "stateMutability": "view",
      "type": "function"
    },
    {
      "inputs": [],
      "name": "getElection_time",
      "outputs": [
        {
          "internalType": "uint256",
          "name": "",
          "type": "uint256"
        }
      ],
      "stateMutability": "view",
      "type": "function"
    },
    {
      "inputs": [],
      "name": "getResetElection_count",
      "outputs": [
        {
          "internalType": "uint256",
          "name": "",
          "type": "uint256"
        }
      ],
      "stateMutability": "view",
      "type": "function"
    },
    {
      "inputs": [
        {
          "internalType": "uint256",
          "name": "id_",
          "type": "uint256"
        }
      ],
      "name": "removeCandidate",
      "outputs": [],
      "stateMutability": "nonpayable",
      "type": "function"
    },
    {
      "inputs": [],
      "name": "resetElection",
      "outputs": [],
      "stateMutability": "nonpayable",
      "type": "function"
    },
    {
      "inputs": [
        {
          "internalType": "uint256",
          "name": "weeks_",
          "type": "uint256"
        },
        {
          "internalType": "uint256",
          "name": "days_",
          "type": "uint256"
        },
        {
          "internalType": "uint256",
          "name": "hours_",
          "type": "uint256"
        },
        {
          "internalType": "uint256",
          "name": "minutes_",
          "type": "uint256"
        },
        {
          "internalType": "uint256",
          "name": "seconds_",
          "type": "uint256"
        }
      ],
      "name": "startElection",
      "outputs": [],
      "stateMutability": "nonpayable",
      "type": "function"
    }
  ],
  "bytecode": "0x6080604052600060015534801561001557600080fd5b50336000806101000a81548173ffffffffffffffffffffffffffffffffffffffff021916908373ffffffffffffffffffffffffffffffffffffffff16021790555060008054906101000a900473ffffffffffffffffffffffffffffffffffffffff1673ffffffffffffffffffffffffffffffffffffffff167f0b41a216fea24e5c7f23614889e0b25abb2e08d2eb1b497dec255157ff953d0a60405160405180910390a26117db806100c86000396000f3fe608060405234801561001057600080fd5b50600436106100935760003560e01c80637af87410116100665780637af874101461010e578063966914241461012a578063e23cec7b14610148578063e8f3052314610164578063f84028d51461016e57610093565b806306a49fce1461009857806309e9d7e2146100b65780632ed986a7146100d25780634f84d8d8146100f0575b600080fd5b6100a061019e565b6040516100ad9190611215565b60405180910390f35b6100d060048036038101906100cb9190610f87565b6102a3565b005b6100da610521565b6040516100e791906112f2565b60405180910390f35b6100f861057a565b60405161010591906112f2565b60405180910390f35b61012860048036038101906101239190610fb0565b610584565b005b610132610703565b60405161013f9190611237565b60405180910390f35b610162600480360381019061015d9190610f33565b61070f565b005b61016c6108d1565b005b61018860048036038101906101839190610f87565b610ba8565b60405161019591906112f2565b60405180910390f35b60606002805480602002602001604051908101604052809291908181526020016000905b8282101561029a57838290600052602060002090600302016040518060600160405290816000820180546101f590611505565b80601f016020809104026020016040519081016040528092919081815260200182805461022190611505565b801561026e5780601f106102435761010080835404028352916020019161026e565b820191906000526020600020905b81548152906001019060200180831161025157829003601f168201915b5050505050815260200160018201548152602001600282015481525050815260200190600101906101c2565b50505050905090565b60008054906101000a900473ffffffffffffffffffffffffffffffffffffffff1673ffffffffffffffffffffffffffffffffffffffff163373ffffffffffffffffffffffffffffffffffffffff1614610331576040517f08c379a000000000000000000000000000000000000000000000000000000000815260040161032890611252565b60405180910390fd5b60005b60028054905081101561051d57816002828154811061037c577f4e487b7100000000000000000000000000000000000000000000000000000000600052603260045260246000fd5b906000526020600020906003020160010154141561050a5760006003600084815260200190815260200160002060006101000a81548160ff021916908315150217905550600260016002805490506103d49190611479565b8154811061040b577f4e487b7100000000000000000000000000000000000000000000000000000000600052603260045260246000fd5b906000526020600020906003020160028281548110610453577f4e487b7100000000000000000000000000000000000000000000000000000000600052603260045260246000fd5b9060005260206000209060030201600082018160000190805461047590611505565b610480929190610cca565b50600182015481600101556002820154816002015590505060028054806104d0577f4e487b7100000000000000000000000000000000000000000000000000000000600052603160045260246000fd5b6001900381819060005260206000209060030201600080820160006104f59190610d57565b60018201600090556002820160009055505090555b808061051590611568565b915050610334565b5050565b60006009544210610567576040517f08c379a000000000000000000000000000000000000000000000000000000000815260040161055e906112d2565b60405180910390fd5b426009546105759190611479565b905090565b6000600154905090565b60008054906101000a900473ffffffffffffffffffffffffffffffffffffffff1673ffffffffffffffffffffffffffffffffffffffff163373ffffffffffffffffffffffffffffffffffffffff1614610612576040517f08c379a000000000000000000000000000000000000000000000000000000000815260040161060990611252565b60405180910390fd5b60028080549050101561065a576040517f08c379a000000000000000000000000000000000000000000000000000000000815260040161065190611272565b60405180910390fd5b80603c83610668919061141f565b610e1085610676919061141f565b6201518087610685919061141f565b62093a8089610694919061141f565b4261069f91906113c9565b6106a991906113c9565b6106b391906113c9565b6106bd91906113c9565b6106c791906113c9565b6009819055506009547fd0620cedbb1e03e8a5c59f460040ef78fd59fb3abf2fce0a3f43a2adf47be5e960405160405180910390a25050505050565b60006009544210905090565b60008054906101000a900473ffffffffffffffffffffffffffffffffffffffff1673ffffffffffffffffffffffffffffffffffffffff163373ffffffffffffffffffffffffffffffffffffffff161461079d576040517f08c379a000000000000000000000000000000000000000000000000000000000815260040161079490611252565b60405180910390fd5b6003600082815260200190815260200160002060009054906101000a900460ff16156107fe576040517f08c379a00000000000000000000000000000000000000000000000000000000081526004016107f590611292565b60405180910390fd5b60026040518060600160405280848152602001838152602001600081525090806001815401808255809150506001900390600052602060002090600302016000909190919091506000820151816000019080519060200190610861929190610d97565b506020820151816001015560408201518160020155505060016003600083815260200190815260200160002060006101000a81548160ff02191690831515021790555060048190806001815401808255809150506001900390600052602060002001600090919091909150555050565b60008054906101000a900473ffffffffffffffffffffffffffffffffffffffff1673ffffffffffffffffffffffffffffffffffffffff163373ffffffffffffffffffffffffffffffffffffffff161461095f576040517f08c379a000000000000000000000000000000000000000000000000000000000815260040161095690611252565b60405180910390fd5b60095442106109a3576040517f08c379a000000000000000000000000000000000000000000000000000000000815260040161099a906112d2565b60405180910390fd5b60005b600280549050811015610a3657600060036000600484815481106109f3577f4e487b7100000000000000000000000000000000000000000000000000000000600052603260045260246000fd5b9060005260206000200154815260200190815260200160002060006101000a81548160ff0219169083151502179055508080610a2e90611568565b9150506109a6565b5060005b600780549050811015610b3a5760006005600060088481548110610a87577f4e487b7100000000000000000000000000000000000000000000000000000000600052603260045260246000fd5b9060005260206000200154815260200190815260200160002060006101000a81548160ff02191690831515021790555060006006600060088481548110610af7577f4e487b7100000000000000000000000000000000000000000000000000000000600052603260045260246000fd5b9060005260206000200154815260200190815260200160002060006101000a81548160ff0219169083151502179055508080610b3290611568565b915050610a3a565b5060026000610b499190610e1d565b60076000610b579190610e41565b600060098190555060016000815480929190610b7290611568565b91905055506001547f255af500d3b382c6aefa7fcb5720ee98710a491c3dd03cd10dc45ec66aa92c4d60405160405180910390a2565b6000806000905060005b600280549050811015610c2e578360028281548110610bfa577f4e487b7100000000000000000000000000000000000000000000000000000000600052603260045260246000fd5b9060005260206000209060030201600101541415610c1b5760019150610c2e565b8080610c2690611568565b915050610bb2565b6001151582151514610c75576040517f08c379a0000000000000000000000000000000000000000000000000000000008152600401610c6c906112b2565b60405180910390fd5b60028181548110610caf577f4e487b7100000000000000000000000000000000000000000000000000000000600052603260045260246000fd5b90600052602060002090600302016002015492505050919050565b828054610cd690611505565b90600052602060002090601f016020900481019282610cf85760008555610d46565b82601f10610d095780548555610d46565b82800160010185558215610d4657600052602060002091601f016020900482015b82811115610d45578254825591600101919060010190610d2a565b5b509050610d539190610e62565b5090565b508054610d6390611505565b6000825580601f10610d755750610d94565b601f016020900490600052602060002090810190610d939190610e62565b5b50565b828054610da390611505565b90600052602060002090601f016020900481019282610dc55760008555610e0c565b82601f10610dde57805160ff1916838001178555610e0c565b82800160010185558215610e0c579182015b82811115610e0b578251825591602001919060010190610df0565b5b509050610e199190610e62565b5090565b5080546000825560030290600052602060002090810190610e3e9190610e7f565b50565b5080546000825590600052602060002090810190610e5f9190610e62565b50565b5b80821115610e7b576000816000905550600101610e63565b5090565b5b80821115610eb25760008082016000610e999190610d57565b6001820160009055600282016000905550600301610e80565b5090565b6000610ec9610ec484611332565b61130d565b905082815260208101848484011115610ee157600080fd5b610eec8482856114c3565b509392505050565b600082601f830112610f0557600080fd5b8135610f15848260208601610eb6565b91505092915050565b600081359050610f2d8161178e565b92915050565b60008060408385031215610f4657600080fd5b600083013567ffffffffffffffff811115610f6057600080fd5b610f6c85828601610ef4565b9250506020610f7d85828601610f1e565b9150509250929050565b600060208284031215610f9957600080fd5b6000610fa784828501610f1e565b91505092915050565b600080600080600060a08688031215610fc857600080fd5b6000610fd688828901610f1e565b9550506020610fe788828901610f1e565b9450506040610ff888828901610f1e565b935050606061100988828901610f1e565b925050608061101a88828901610f1e565b9150509295509295909350565b600061103383836111a7565b905092915050565b600061104682611373565b6110508185611396565b93508360208202850161106285611363565b8060005b8581101561109e578484038952815161107f8582611027565b945061108a83611389565b925060208a01995050600181019050611066565b50829750879550505050505092915050565b6110b9816114ad565b82525050565b60006110ca8261137e565b6110d481856113a7565b93506110e48185602086016114d2565b6110ed8161163e565b840191505092915050565b60006111056022836113b8565b91506111108261164f565b604082019050919050565b60006111286041836113b8565b91506111338261169e565b606082019050919050565b600061114b6012836113b8565b915061115682611713565b602082019050919050565b600061116e6015836113b8565b91506111798261173c565b602082019050919050565b6000611191601d836113b8565b915061119c82611765565b602082019050919050565b600060608301600083015184820360008601526111c482826110bf565b91505060208301516111d960208601826111f7565b5060408301516111ec60408601826111f7565b508091505092915050565b611200816114b9565b82525050565b61120f816114b9565b82525050565b6000602082019050818103600083015261122f818461103b565b905092915050565b600060208201905061124c60008301846110b0565b92915050565b6000602082019050818103600083015261126b816110f8565b9050919050565b6000602082019050818103600083015261128b8161111b565b9050919050565b600060208201905081810360008301526112ab8161113e565b9050919050565b600060208201905081810360008301526112cb81611161565b9050919050565b600060208201905081810360008301526112eb81611184565b9050919050565b60006020820190506113076000830184611206565b92915050565b6000611317611328565b90506113238282611537565b919050565b6000604051905090565b600067ffffffffffffffff82111561134d5761134c61160f565b5b6113568261163e565b9050602081019050919050565b6000819050602082019050919050565b600081519050919050565b600081519050919050565b6000602082019050919050565b600082825260208201905092915050565b600082825260208201905092915050565b600082825260208201905092915050565b60006113d4826114b9565b91506113df836114b9565b9250827fffffffffffffffffffffffffffffffffffffffffffffffffffffffffffffffff03821115611414576114136115b1565b5b828201905092915050565b600061142a826114b9565b9150611435836114b9565b9250817fffffffffffffffffffffffffffffffffffffffffffffffffffffffffffffffff048311821515161561146e5761146d6115b1565b5b828202905092915050565b6000611484826114b9565b915061148f836114b9565b9250828210156114a2576114a16115b1565b5b828203905092915050565b60008115159050919050565b6000819050919050565b82818337600083830152505050565b60005b838110156114f05780820151818401526020810190506114d5565b838111156114ff576000848401525b50505050565b6000600282049050600182168061151d57607f821691505b60208210811415611531576115306115e0565b5b50919050565b6115408261163e565b810181811067ffffffffffffffff8211171561155f5761155e61160f565b5b80604052505050565b6000611573826114b9565b91507fffffffffffffffffffffffffffffffffffffffffffffffffffffffffffffffff8214156115a6576115a56115b1565b5b600182019050919050565b7f4e487b7100000000000000000000000000000000000000000000000000000000600052601160045260246000fd5b7f4e487b7100000000000000000000000000000000000000000000000000000000600052602260045260246000fd5b7f4e487b7100000000000000000000000000000000000000000000000000000000600052604160045260246000fd5b6000601f19601f8301169050919050565b7f4f6e6c7920686f73742063616e2061636365737320746f20746869732061726560008201527f6121000000000000000000000000000000000000000000000000000000000000602082015250565b7f4174206c656173742032206f72206d6f72652043616e6469646174657320617260008201527f6520726571756972656420746f2073746172742074686520456c656374696f6e60208201527f2100000000000000000000000000000000000000000000000000000000000000604082015250565b7f43616e6469646174652045786973746564210000000000000000000000000000600082015250565b7f496e76616c69642043616e646964617465204944210000000000000000000000600082015250565b7f456c656374696f6e20686173206e6f7420737461727465642079657421000000600082015250565b611797816114b9565b81146117a257600080fd5b5056fea2646970667358221220fe05b8a345197dacef8d972bf771f76d08dee58223489658b1f21f9187d7bf3664736f6c63430008020033",
  "linkReferences": {},
  "deployedLinkReferences": {}
}