{
  "_format": "hh-sol-artifact-1",
  "contractName": "Voter",
  "sourceName": "contracts/DVS.sol",
  "abi": [
    {
      "anonymous": false,
      "inputs": [
        {
          "indexed": true,
          "internalType": "address",
          "name": "host_",
          "type": "address"
        }
      ],
      "name": "constructor_",
      "type": "event"
    },
    {
      "anonymous": false,
      "inputs": [
        {
          "indexed": true,
          "internalType": "uint256",
          "name": "resetCount",
          "type": "uint256"
        }
      ],
      "name": "resetElection_",
      "type": "event"
    },
    {
      "anonymous": false,
      "inputs": [
        {
          "indexed": true,
          "internalType": "uint256",
          "name": "endTime_",
          "type": "uint256"
        }
      ],
      "name": "setElection_time_",
      "type": "event"
    },
    {
      "anonymous": false,
      "inputs": [
        {
          "indexed": true,
          "internalType": "string",
          "name": "name",
          "type": "string"
        },
        {
          "indexed": true,
          "internalType": "uint256",
          "name": "voteCount",
          "type": "uint256"
        }
      ],
      "name": "vote_",
      "type": "event"
    },
    {
      "inputs": [
        {
          "internalType": "string",
          "name": "name_",
          "type": "string"
        },
        {
          "internalType": "uint256",
          "name": "id_",
          "type": "uint256"
        }
      ],
      "name": "addCandidate",
      "outputs": [],
      "stateMutability": "nonpayable",
      "type": "function"
    },
    {
      "inputs": [],
      "name": "clearTAC",
      "outputs": [],
      "stateMutability": "nonpayable",
      "type": "function"
    },
    {
      "inputs": [],
      "name": "getCandidates",
      "outputs": [
        {
          "components": [
            {
              "internalType": "string",
              "name": "name",
              "type": "string"
            },
            {
              "internalType": "uint256",
              "name": "id",
              "type": "uint256"
            },
            {
              "internalType": "uint256",
              "name": "voteCount",
              "type": "uint256"
            }
          ],
          "internalType": "struct Election.Candidate_[]",
          "name": "",
          "type": "tuple[]"
        }
      ],
      "stateMutability": "view",
      "type": "function"
    },
    {
      "inputs": [
        {
          "internalType": "uint256",
          "name": "id",
          "type": "uint256"
        }
      ],
      "name": "getCandidates_votecount",
      "outputs": [
        {
          "internalType": "uint256",
          "name": "",
          "type": "uint256"
        }
      ],
      "stateMutability": "view",
      "type": "function"
    },
    {
      "inputs": [],
      "name": "getElection_status",
      "outputs": [
        {
          "internalType": "bool",
          "name": "",
          "type": "bool"
        }
      ],
      "stateMutability": "view",
      "type": "function"
    },
    {
      "inputs": [],
      "name": "getElection_time",
      "outputs": [
        {
          "internalType": "uint256",
          "name": "",
          "type": "uint256"
        }
      ],
      "stateMutability": "view",
      "type": "function"
    },
    {
      "inputs": [],
      "name": "getResetElection_count",
      "outputs": [
        {
          "internalType": "uint256",
          "name": "",
          "type": "uint256"
        }
      ],
      "stateMutability": "view",
      "type": "function"
    },
    {
      "inputs": [],
      "name": "getTAC",
      "outputs": [
        {
          "internalType": "uint256[]",
          "name": "",
          "type": "uint256[]"
        }
      ],
      "stateMutability": "view",
      "type": "function"
    },
    {
      "inputs": [
        {
          "internalType": "uint256",
          "name": "id_",
          "type": "uint256"
        }
      ],
      "name": "removeCandidate",
      "outputs": [],
      "stateMutability": "nonpayable",
      "type": "function"
    },
    {
      "inputs": [
        {
          "internalType": "uint256",
          "name": "TAC_",
          "type": "uint256"
        }
      ],
      "name": "removeTAC",
      "outputs": [],
      "stateMutability": "nonpayable",
      "type": "function"
    },
    {
      "inputs": [],
      "name": "resetElection",
      "outputs": [],
      "stateMutability": "nonpayable",
      "type": "function"
    },
    {
      "inputs": [
        {
          "internalType": "uint256[]",
          "name": "TAC_",
          "type": "uint256[]"
        }
      ],
      "name": "setTAC",
      "outputs": [],
      "stateMutability": "nonpayable",
      "type": "function"
    },
    {
      "inputs": [
        {
          "internalType": "uint256",
          "name": "weeks_",
          "type": "uint256"
        },
        {
          "internalType": "uint256",
          "name": "days_",
          "type": "uint256"
        },
        {
          "internalType": "uint256",
          "name": "hours_",
          "type": "uint256"
        },
        {
          "internalType": "uint256",
          "name": "minutes_",
          "type": "uint256"
        },
        {
          "internalType": "uint256",
          "name": "seconds_",
          "type": "uint256"
        }
      ],
      "name": "startElection",
      "outputs": [],
      "stateMutability": "nonpayable",
      "type": "function"
    },
    {
      "inputs": [
        {
          "internalType": "uint256",
          "name": "TAC_",
          "type": "uint256"
        }
      ],
      "name": "verifyTAC",
      "outputs": [
        {
          "internalType": "bool",
          "name": "",
          "type": "bool"
        }
      ],
      "stateMutability": "nonpayable",
      "type": "function"
    },
    {
      "inputs": [
        {
          "internalType": "uint8",
          "name": "index",
          "type": "uint8"
        }
      ],
      "name": "vote",
      "outputs": [],
      "stateMutability": "nonpayable",
      "type": "function"
    }
  ],
  "bytecode": "0x6080604052600060015534801561001557600080fd5b50336000806101000a81548173ffffffffffffffffffffffffffffffffffffffff021916908373ffffffffffffffffffffffffffffffffffffffff16021790555060008054906101000a900473ffffffffffffffffffffffffffffffffffffffff1673ffffffffffffffffffffffffffffffffffffffff167f0b41a216fea24e5c7f23614889e0b25abb2e08d2eb1b497dec255157ff953d0a60405160405180910390a2612679806100c86000396000f3fe608060405234801561001057600080fd5b50600436106100f55760003560e01c806372d710b811610097578063b3f98adc11610066578063b3f98adc1461023a578063e23cec7b14610256578063e8f3052314610272578063f84028d51461027c576100f5565b806372d710b8146101da5780637af87410146101f65780639669142414610212578063a581403a14610230576100f5565b80632c9e3ffe116100d35780632c9e3ffe146101645780632ed986a7146101805780634f84d8d81461019e5780636c33d2ad146101bc576100f5565b806306a49fce146100fa57806309e9d7e21461011857806326fdd6a114610134575b600080fd5b6101026102ac565b60405161010f9190611ef8565b60405180910390f35b610132600480360381019061012d9190611aef565b6103b1565b005b61014e60048036038101906101499190611aef565b61062f565b60405161015b9190611f3c565b60405180910390f35b61017e60048036038101906101799190611a5a565b6106c4565b005b6101886108bf565b6040516101959190612037565b60405180910390f35b6101a6610918565b6040516101b39190612037565b60405180910390f35b6101c4610922565b6040516101d19190611f1a565b60405180910390f35b6101f460048036038101906101ef9190611aef565b61097a565b005b610210600480360381019061020b9190611b18565b610c20565b005b61021a610d9f565b6040516102279190611f3c565b60405180910390f35b610238610dab565b005b610254600480360381019061024f9190611b8f565b610f4d565b005b610270600480360381019061026b9190611a9b565b61118b565b005b61027a61134d565b005b61029660048036038101906102919190611aef565b611624565b6040516102a39190612037565b60405180910390f35b60606002805480602002602001604051908101604052809291908181526020016000905b828210156103a8578382906000526020600020906003020160405180606001604052908160008201805461030390612310565b80601f016020809104026020016040519081016040528092919081815260200182805461032f90612310565b801561037c5780601f106103515761010080835404028352916020019161037c565b820191906000526020600020905b81548152906001019060200180831161035f57829003601f168201915b5050505050815260200160018201548152602001600282015481525050815260200190600101906102d0565b50505050905090565b60008054906101000a900473ffffffffffffffffffffffffffffffffffffffff1673ffffffffffffffffffffffffffffffffffffffff163373ffffffffffffffffffffffffffffffffffffffff161461043f576040517f08c379a000000000000000000000000000000000000000000000000000000000815260040161043690611f57565b60405180910390fd5b60005b60028054905081101561062b57816002828154811061048a577f4e487b7100000000000000000000000000000000000000000000000000000000600052603260045260246000fd5b90600052602060002090600302016001015414156106185760006003600084815260200190815260200160002060006101000a81548160ff021916908315150217905550600260016002805490506104e29190612243565b81548110610519577f4e487b7100000000000000000000000000000000000000000000000000000000600052603260045260246000fd5b906000526020600020906003020160028281548110610561577f4e487b7100000000000000000000000000000000000000000000000000000000600052603260045260246000fd5b9060005260206000209060030201600082018160000190805461058390612310565b61058e929190611746565b50600182015481600101556002820154816002015590505060028054806105de577f4e487b7100000000000000000000000000000000000000000000000000000000600052603160045260246000fd5b60019003818190600052602060002090600302016000808201600061060391906117d3565b60018201600090556002820160009055505090555b808061062390612373565b915050610442565b5050565b600081600a8190555060005b6007805490508160ff1610156106b957600a5460078260ff168154811061068b577f4e487b7100000000000000000000000000000000000000000000000000000000600052603260045260246000fd5b906000526020600020015414156106a65760019150506106bf565b80806106b1906123bc565b91505061063b565b50600090505b919050565b60008054906101000a900473ffffffffffffffffffffffffffffffffffffffff1673ffffffffffffffffffffffffffffffffffffffff163373ffffffffffffffffffffffffffffffffffffffff1614610752576040517f08c379a000000000000000000000000000000000000000000000000000000000815260040161074990611f57565b60405180910390fd5b60005b81518160ff1610156108bb576007828260ff168151811061079f577f4e487b7100000000000000000000000000000000000000000000000000000000600052603260045260246000fd5b60200260200101519080600181540180825580915050600190039060005260206000200160009091909190915055600160056000848460ff168151811061080f577f4e487b7100000000000000000000000000000000000000000000000000000000600052603260045260246000fd5b6020026020010151815260200190815260200160002060006101000a81548160ff0219169083151502179055506008828260ff168151811061087a577f4e487b7100000000000000000000000000000000000000000000000000000000600052603260045260246000fd5b6020026020010151908060018154018082558091505060019003906000526020600020016000909190919091505580806108b3906123bc565b915050610755565b5050565b60006009544210610905576040517f08c379a00000000000000000000000000000000000000000000000000000000081526004016108fc90612017565b60405180910390fd5b426009546109139190612243565b905090565b6000600154905090565b6060600780548060200260200160405190810160405280929190818152602001828054801561097057602002820191906000526020600020905b81548152602001906001019080831161095c575b5050505050905090565b60008054906101000a900473ffffffffffffffffffffffffffffffffffffffff1673ffffffffffffffffffffffffffffffffffffffff163373ffffffffffffffffffffffffffffffffffffffff1614610a08576040517f08c379a00000000000000000000000000000000000000000000000000000000081526004016109ff90611f57565b60405180910390fd5b6005600082815260200190815260200160002060009054906101000a900460ff16610a68576040517f08c379a0000000000000000000000000000000000000000000000000000000008152600401610a5f90611fd7565b60405180910390fd5b60005b600780549050811015610c1c578160078281548110610ab3577f4e487b7100000000000000000000000000000000000000000000000000000000600052603260045260246000fd5b90600052602060002001541415610c095760006005600084815260200190815260200160002060006101000a81548160ff02191690831515021790555060006006600084815260200190815260200160002060006101000a81548160ff02191690831515021790555060076001600780549050610b309190612243565b81548110610b67577f4e487b7100000000000000000000000000000000000000000000000000000000600052603260045260246000fd5b906000526020600020015460078281548110610bac577f4e487b7100000000000000000000000000000000000000000000000000000000600052603260045260246000fd5b90600052602060002001819055506007805480610bf2577f4e487b7100000000000000000000000000000000000000000000000000000000600052603160045260246000fd5b600190038181906000526020600020016000905590555b8080610c1490612373565b915050610a6b565b5050565b60008054906101000a900473ffffffffffffffffffffffffffffffffffffffff1673ffffffffffffffffffffffffffffffffffffffff163373ffffffffffffffffffffffffffffffffffffffff1614610cae576040517f08c379a0000000000000000000000000000000000000000000000000000000008152600401610ca590611f57565b60405180910390fd5b600280805490501015610cf6576040517f08c379a0000000000000000000000000000000000000000000000000000000008152600401610ced90611f77565b60405180910390fd5b80603c83610d0491906121e9565b610e1085610d1291906121e9565b6201518087610d2191906121e9565b62093a8089610d3091906121e9565b42610d3b9190612193565b610d459190612193565b610d4f9190612193565b610d599190612193565b610d639190612193565b6009819055506009547fd0620cedbb1e03e8a5c59f460040ef78fd59fb3abf2fce0a3f43a2adf47be5e960405160405180910390a25050505050565b60006009544210905090565b60008054906101000a900473ffffffffffffffffffffffffffffffffffffffff1673ffffffffffffffffffffffffffffffffffffffff163373ffffffffffffffffffffffffffffffffffffffff1614610e39576040517f08c379a0000000000000000000000000000000000000000000000000000000008152600401610e3090611f57565b60405180910390fd5b60005b600780549050811015610f3c5760006005600060088481548110610e89577f4e487b7100000000000000000000000000000000000000000000000000000000600052603260045260246000fd5b9060005260206000200154815260200190815260200160002060006101000a81548160ff02191690831515021790555060006006600060088481548110610ef9577f4e487b7100000000000000000000000000000000000000000000000000000000600052603260045260246000fd5b9060005260206000200154815260200190815260200160002060006101000a81548160ff0219169083151502179055508080610f3490612373565b915050610e3c565b5060076000610f4b9190611813565b565b6009544210610f91576040517f08c379a0000000000000000000000000000000000000000000000000000000008152600401610f8890612017565b60405180910390fd5b60066000600a54815260200190815260200160002060009054906101000a900460ff1615610ff4576040517f08c379a0000000000000000000000000000000000000000000000000000000008152600401610feb90611f97565b60405180910390fd5b60026001826110039190612277565b60ff168154811061103d577f4e487b7100000000000000000000000000000000000000000000000000000000600052603260045260246000fd5b9060005260206000209060030201600201600081548092919061105f90612373565b919050555060026001826110739190612277565b60ff16815481106110ad577f4e487b7100000000000000000000000000000000000000000000000000000000600052603260045260246000fd5b90600052602060002090600302016002015460026001836110ce9190612277565b60ff1681548110611108577f4e487b7100000000000000000000000000000000000000000000000000000000600052603260045260246000fd5b90600052602060002090600302016000016040516111269190611ee1565b60405180910390207f9e647de7405bb63ec6bdd0cd5f5ddd1ab29b2ad666890eaf4ddc308fde9f39d560405160405180910390a3600160066000600a54815260200190815260200160002060006101000a81548160ff02191690831515021790555050565b60008054906101000a900473ffffffffffffffffffffffffffffffffffffffff1673ffffffffffffffffffffffffffffffffffffffff163373ffffffffffffffffffffffffffffffffffffffff1614611219576040517f08c379a000000000000000000000000000000000000000000000000000000000815260040161121090611f57565b60405180910390fd5b6003600082815260200190815260200160002060009054906101000a900460ff161561127a576040517f08c379a000000000000000000000000000000000000000000000000000000000815260040161127190611fb7565b60405180910390fd5b600260405180606001604052808481526020018381526020016000815250908060018154018082558091505060019003906000526020600020906003020160009091909190915060008201518160000190805190602001906112dd929190611834565b506020820151816001015560408201518160020155505060016003600083815260200190815260200160002060006101000a81548160ff02191690831515021790555060048190806001815401808255809150506001900390600052602060002001600090919091909150555050565b60008054906101000a900473ffffffffffffffffffffffffffffffffffffffff1673ffffffffffffffffffffffffffffffffffffffff163373ffffffffffffffffffffffffffffffffffffffff16146113db576040517f08c379a00000000000000000000000000000000000000000000000000000000081526004016113d290611f57565b60405180910390fd5b600954421061141f576040517f08c379a000000000000000000000000000000000000000000000000000000000815260040161141690612017565b60405180910390fd5b60005b6002805490508110156114b2576000600360006004848154811061146f577f4e487b7100000000000000000000000000000000000000000000000000000000600052603260045260246000fd5b9060005260206000200154815260200190815260200160002060006101000a81548160ff02191690831515021790555080806114aa90612373565b915050611422565b5060005b6007805490508110156115b65760006005600060088481548110611503577f4e487b7100000000000000000000000000000000000000000000000000000000600052603260045260246000fd5b9060005260206000200154815260200190815260200160002060006101000a81548160ff02191690831515021790555060006006600060088481548110611573577f4e487b7100000000000000000000000000000000000000000000000000000000600052603260045260246000fd5b9060005260206000200154815260200190815260200160002060006101000a81548160ff02191690831515021790555080806115ae90612373565b9150506114b6565b50600260006115c591906118ba565b600760006115d39190611813565b6000600981905550600160008154809291906115ee90612373565b91905055506001547f255af500d3b382c6aefa7fcb5720ee98710a491c3dd03cd10dc45ec66aa92c4d60405160405180910390a2565b6000806000905060005b6002805490508110156116aa578360028281548110611676577f4e487b7100000000000000000000000000000000000000000000000000000000600052603260045260246000fd5b906000526020600020906003020160010154141561169757600191506116aa565b80806116a290612373565b91505061162e565b60011515821515146116f1576040517f08c379a00000000000000000000000000000000000000000000000000000000081526004016116e890611ff7565b60405180910390fd5b6002818154811061172b577f4e487b7100000000000000000000000000000000000000000000000000000000600052603260045260246000fd5b90600052602060002090600302016002015492505050919050565b82805461175290612310565b90600052602060002090601f01602090048101928261177457600085556117c2565b82601f1061178557805485556117c2565b828001600101855582156117c257600052602060002091601f016020900482015b828111156117c15782548255916001019190600101906117a6565b5b5090506117cf91906118de565b5090565b5080546117df90612310565b6000825580601f106117f15750611810565b601f01602090049060005260206000209081019061180f91906118de565b5b50565b508054600082559060005260206000209081019061183191906118de565b50565b82805461184090612310565b90600052602060002090601f01602090048101928261186257600085556118a9565b82601f1061187b57805160ff19168380011785556118a9565b828001600101855582156118a9579182015b828111156118a857825182559160200191906001019061188d565b5b5090506118b691906118de565b5090565b50805460008255600302906000526020600020908101906118db91906118fb565b50565b5b808211156118f75760008160009055506001016118df565b5090565b5b8082111561192e576000808201600061191591906117d3565b60018201600090556002820160009055506003016118fc565b5090565b600061194561194084612077565b612052565b9050808382526020820190508285602086028201111561196457600080fd5b60005b85811015611994578161197a8882611a30565b845260208401935060208301925050600181019050611967565b5050509392505050565b60006119b16119ac846120a3565b612052565b9050828152602081018484840111156119c957600080fd5b6119d48482856122ce565b509392505050565b600082601f8301126119ed57600080fd5b81356119fd848260208601611932565b91505092915050565b600082601f830112611a1757600080fd5b8135611a2784826020860161199e565b91505092915050565b600081359050611a3f81612615565b92915050565b600081359050611a548161262c565b92915050565b600060208284031215611a6c57600080fd5b600082013567ffffffffffffffff811115611a8657600080fd5b611a92848285016119dc565b91505092915050565b60008060408385031215611aae57600080fd5b600083013567ffffffffffffffff811115611ac857600080fd5b611ad485828601611a06565b9250506020611ae585828601611a30565b9150509250929050565b600060208284031215611b0157600080fd5b6000611b0f84828501611a30565b91505092915050565b600080600080600060a08688031215611b3057600080fd5b6000611b3e88828901611a30565b9550506020611b4f88828901611a30565b9450506040611b6088828901611a30565b9350506060611b7188828901611a30565b9250506080611b8288828901611a30565b9150509295509295909350565b600060208284031215611ba157600080fd5b6000611baf84828501611a45565b91505092915050565b6000611bc48383611e73565b905092915050565b6000611bd88383611ec3565b60208301905092915050565b6000611bef82612109565b611bf98185612144565b935083602082028501611c0b856120d4565b8060005b85811015611c475784840389528151611c288582611bb8565b9450611c338361212a565b925060208a01995050600181019050611c0f565b50829750879550505050505092915050565b6000611c6482612114565b611c6e8185612155565b9350611c79836120e4565b8060005b83811015611caa578151611c918882611bcc565b9750611c9c83612137565b925050600181019050611c7d565b5085935050505092915050565b611cc0816122ab565b82525050565b6000611cd18261211f565b611cdb8185612166565b9350611ceb8185602086016122dd565b611cf481612473565b840191505092915050565b60008154611d0c81612310565b611d168186612188565b94506001821660008114611d315760018114611d4257611d75565b60ff19831686528186019350611d75565b611d4b856120f4565b60005b83811015611d6d57815481890152600182019150602081019050611d4e565b838801955050505b50505092915050565b6000611d8b602283612177565b9150611d9682612484565b604082019050919050565b6000611dae604183612177565b9150611db9826124d3565b606082019050919050565b6000611dd1601783612177565b9150611ddc82612548565b602082019050919050565b6000611df4601283612177565b9150611dff82612571565b602082019050919050565b6000611e17600e83612177565b9150611e228261259a565b602082019050919050565b6000611e3a601583612177565b9150611e45826125c3565b602082019050919050565b6000611e5d601d83612177565b9150611e68826125ec565b602082019050919050565b60006060830160008301518482036000860152611e908282611cc6565b9150506020830151611ea56020860182611ec3565b506040830151611eb86040860182611ec3565b508091505092915050565b611ecc816122b7565b82525050565b611edb816122b7565b82525050565b6000611eed8284611cff565b915081905092915050565b60006020820190508181036000830152611f128184611be4565b905092915050565b60006020820190508181036000830152611f348184611c59565b905092915050565b6000602082019050611f516000830184611cb7565b92915050565b60006020820190508181036000830152611f7081611d7e565b9050919050565b60006020820190508181036000830152611f9081611da1565b9050919050565b60006020820190508181036000830152611fb081611dc4565b9050919050565b60006020820190508181036000830152611fd081611de7565b9050919050565b60006020820190508181036000830152611ff081611e0a565b9050919050565b6000602082019050818103600083015261201081611e2d565b9050919050565b6000602082019050818103600083015261203081611e50565b9050919050565b600060208201905061204c6000830184611ed2565b92915050565b600061205c61206d565b90506120688282612342565b919050565b6000604051905090565b600067ffffffffffffffff82111561209257612091612444565b5b602082029050602081019050919050565b600067ffffffffffffffff8211156120be576120bd612444565b5b6120c782612473565b9050602081019050919050565b6000819050602082019050919050565b6000819050602082019050919050565b60008190508160005260206000209050919050565b600081519050919050565b600081519050919050565b600081519050919050565b6000602082019050919050565b6000602082019050919050565b600082825260208201905092915050565b600082825260208201905092915050565b600082825260208201905092915050565b600082825260208201905092915050565b600081905092915050565b600061219e826122b7565b91506121a9836122b7565b9250827fffffffffffffffffffffffffffffffffffffffffffffffffffffffffffffffff038211156121de576121dd6123e6565b5b828201905092915050565b60006121f4826122b7565b91506121ff836122b7565b9250817fffffffffffffffffffffffffffffffffffffffffffffffffffffffffffffffff0483118215151615612238576122376123e6565b5b828202905092915050565b600061224e826122b7565b9150612259836122b7565b92508282101561226c5761226b6123e6565b5b828203905092915050565b6000612282826122c1565b915061228d836122c1565b9250828210156122a05761229f6123e6565b5b828203905092915050565b60008115159050919050565b6000819050919050565b600060ff82169050919050565b82818337600083830152505050565b60005b838110156122fb5780820151818401526020810190506122e0565b8381111561230a576000848401525b50505050565b6000600282049050600182168061232857607f821691505b6020821081141561233c5761233b612415565b5b50919050565b61234b82612473565b810181811067ffffffffffffffff8211171561236a57612369612444565b5b80604052505050565b600061237e826122b7565b91507fffffffffffffffffffffffffffffffffffffffffffffffffffffffffffffffff8214156123b1576123b06123e6565b5b600182019050919050565b60006123c7826122c1565b915060ff8214156123db576123da6123e6565b5b600182019050919050565b7f4e487b7100000000000000000000000000000000000000000000000000000000600052601160045260246000fd5b7f4e487b7100000000000000000000000000000000000000000000000000000000600052602260045260246000fd5b7f4e487b7100000000000000000000000000000000000000000000000000000000600052604160045260246000fd5b6000601f19601f8301169050919050565b7f4f6e6c7920686f73742063616e2061636365737320746f20746869732061726560008201527f6121000000000000000000000000000000000000000000000000000000000000602082015250565b7f4174206c656173742032206f72206d6f72652043616e6469646174657320617260008201527f6520726571756972656420746f2073746172742074686520456c656374696f6e60208201527f2100000000000000000000000000000000000000000000000000000000000000604082015250565b7f596f75206861766520616c726561647920766f74656421000000000000000000600082015250565b7f43616e6469646174652045786973746564210000000000000000000000000000600082015250565b7f544143206e6f7420666f756e6421000000000000000000000000000000000000600082015250565b7f496e76616c69642043616e646964617465204944210000000000000000000000600082015250565b7f456c656374696f6e20686173206e6f7420737461727465642079657421000000600082015250565b61261e816122b7565b811461262957600080fd5b50565b612635816122c1565b811461264057600080fd5b5056fea26469706673582212205aa2ae32563ae0c59418c30ed11624c6ae8cb9855cf294f455a6b05ca9ecebb464736f6c63430008020033",
  "linkReferences": {},
  "deployedLinkReferences": {}
}